{
  "_format": "hh-sol-artifact-1",
  "contractName": "PluggNFT",
  "sourceName": "contracts/PluggNFT.sol",
  "abi": [
    {
      "inputs": [
        {
          "internalType": "string",
          "name": "goldSvg",
          "type": "string"
        },
        {
          "internalType": "string",
          "name": "silverSvg",
          "type": "string"
        }
      ],
      "stateMutability": "nonpayable",
      "type": "constructor"
    },
    {
      "anonymous": false,
      "inputs": [
        {
          "indexed": true,
          "internalType": "address",
          "name": "owner",
          "type": "address"
        },
        {
          "indexed": true,
          "internalType": "address",
          "name": "approved",
          "type": "address"
        },
        {
          "indexed": true,
          "internalType": "uint256",
          "name": "tokenId",
          "type": "uint256"
        }
      ],
      "name": "Approval",
      "type": "event"
    },
    {
      "anonymous": false,
      "inputs": [
        {
          "indexed": true,
          "internalType": "address",
          "name": "owner",
          "type": "address"
        },
        {
          "indexed": true,
          "internalType": "address",
          "name": "operator",
          "type": "address"
        },
        {
          "indexed": false,
          "internalType": "bool",
          "name": "approved",
          "type": "bool"
        }
      ],
      "name": "ApprovalForAll",
      "type": "event"
    },
    {
      "anonymous": false,
      "inputs": [
        {
          "indexed": true,
          "internalType": "uint256",
          "name": "tokenId",
          "type": "uint256"
        },
        {
          "indexed": false,
          "internalType": "uint256",
          "name": "inputNFT_num",
          "type": "uint256"
        }
      ],
      "name": "CreatedNFT",
      "type": "event"
    },
    {
      "anonymous": false,
      "inputs": [
        {
          "indexed": true,
          "internalType": "address",
          "name": "previousOwner",
          "type": "address"
        },
        {
          "indexed": true,
          "internalType": "address",
          "name": "newOwner",
          "type": "address"
        }
      ],
      "name": "OwnershipTransferred",
      "type": "event"
    },
    {
      "anonymous": false,
      "inputs": [
        {
          "indexed": true,
          "internalType": "address",
          "name": "from",
          "type": "address"
        },
        {
          "indexed": true,
          "internalType": "address",
          "name": "to",
          "type": "address"
        },
        {
          "indexed": true,
          "internalType": "uint256",
          "name": "tokenId",
          "type": "uint256"
        }
      ],
      "name": "Transfer",
      "type": "event"
    },
    {
      "inputs": [
        {
          "internalType": "address",
          "name": "to",
          "type": "address"
        },
        {
          "internalType": "uint256",
          "name": "tokenId",
          "type": "uint256"
        }
      ],
      "name": "approve",
      "outputs": [],
      "stateMutability": "nonpayable",
      "type": "function"
    },
    {
      "inputs": [
        {
          "internalType": "address",
          "name": "owner",
          "type": "address"
        }
      ],
      "name": "balanceOf",
      "outputs": [
        {
          "internalType": "uint256",
          "name": "",
          "type": "uint256"
        }
      ],
      "stateMutability": "view",
      "type": "function"
    },
    {
      "inputs": [],
      "name": "contractOwner",
      "outputs": [
        {
          "internalType": "address",
          "name": "",
          "type": "address"
        }
      ],
      "stateMutability": "view",
      "type": "function"
    },
    {
      "inputs": [
        {
          "internalType": "uint256",
          "name": "tokenId",
          "type": "uint256"
        }
      ],
      "name": "getApproved",
      "outputs": [
        {
          "internalType": "address",
          "name": "",
          "type": "address"
        }
      ],
      "stateMutability": "view",
      "type": "function"
    },
    {
      "inputs": [],
      "name": "getGoldNFT_SVG",
      "outputs": [
        {
          "internalType": "string",
          "name": "",
          "type": "string"
        }
      ],
      "stateMutability": "view",
      "type": "function"
    },
    {
      "inputs": [
        {
          "internalType": "uint256",
          "name": "nftNumber",
          "type": "uint256"
        }
      ],
      "name": "getOwnerAddress",
      "outputs": [
        {
          "internalType": "address",
          "name": "",
          "type": "address"
        }
      ],
      "stateMutability": "view",
      "type": "function"
    },
    {
      "inputs": [],
      "name": "getSilverNFT_SVG",
      "outputs": [
        {
          "internalType": "string",
          "name": "",
          "type": "string"
        }
      ],
      "stateMutability": "view",
      "type": "function"
    },
    {
      "inputs": [],
      "name": "getTokenCounter",
      "outputs": [
        {
          "internalType": "uint256",
          "name": "",
          "type": "uint256"
        }
      ],
      "stateMutability": "view",
      "type": "function"
    },
    {
      "inputs": [
        {
          "internalType": "address",
          "name": "owner",
          "type": "address"
        },
        {
          "internalType": "address",
          "name": "operator",
          "type": "address"
        }
      ],
      "name": "isApprovedForAll",
      "outputs": [
        {
          "internalType": "bool",
          "name": "",
          "type": "bool"
        }
      ],
      "stateMutability": "view",
      "type": "function"
    },
    {
      "inputs": [
        {
          "internalType": "uint256",
          "name": "inputNFT_num",
          "type": "uint256"
        }
      ],
      "name": "mintNFT",
      "outputs": [],
      "stateMutability": "nonpayable",
      "type": "function"
    },
    {
      "inputs": [],
      "name": "name",
      "outputs": [
        {
          "internalType": "string",
          "name": "",
          "type": "string"
        }
      ],
      "stateMutability": "view",
      "type": "function"
    },
    {
      "inputs": [
        {
          "internalType": "uint256",
          "name": "",
          "type": "uint256"
        }
      ],
      "name": "nftMinters",
      "outputs": [
        {
          "internalType": "address",
          "name": "",
          "type": "address"
        }
      ],
      "stateMutability": "view",
      "type": "function"
    },
    {
      "inputs": [],
      "name": "owner",
      "outputs": [
        {
          "internalType": "address",
          "name": "",
          "type": "address"
        }
      ],
      "stateMutability": "view",
      "type": "function"
    },
    {
      "inputs": [
        {
          "internalType": "uint256",
          "name": "tokenId",
          "type": "uint256"
        }
      ],
      "name": "ownerOf",
      "outputs": [
        {
          "internalType": "address",
          "name": "",
          "type": "address"
        }
      ],
      "stateMutability": "view",
      "type": "function"
    },
    {
      "inputs": [],
      "name": "renounceOwnership",
      "outputs": [],
      "stateMutability": "nonpayable",
      "type": "function"
    },
    {
      "inputs": [],
      "name": "s_tokenCounter",
      "outputs": [
        {
          "internalType": "uint256",
          "name": "",
          "type": "uint256"
        }
      ],
      "stateMutability": "view",
      "type": "function"
    },
    {
      "inputs": [
        {
          "internalType": "address",
          "name": "from",
          "type": "address"
        },
        {
          "internalType": "address",
          "name": "to",
          "type": "address"
        },
        {
          "internalType": "uint256",
          "name": "tokenId",
          "type": "uint256"
        }
      ],
      "name": "safeTransferFrom",
      "outputs": [],
      "stateMutability": "nonpayable",
      "type": "function"
    },
    {
      "inputs": [
        {
          "internalType": "address",
          "name": "from",
          "type": "address"
        },
        {
          "internalType": "address",
          "name": "to",
          "type": "address"
        },
        {
          "internalType": "uint256",
          "name": "tokenId",
          "type": "uint256"
        },
        {
          "internalType": "bytes",
          "name": "data",
          "type": "bytes"
        }
      ],
      "name": "safeTransferFrom",
      "outputs": [],
      "stateMutability": "nonpayable",
      "type": "function"
    },
    {
      "inputs": [
        {
          "internalType": "address",
          "name": "operator",
          "type": "address"
        },
        {
          "internalType": "bool",
          "name": "approved",
          "type": "bool"
        }
      ],
      "name": "setApprovalForAll",
      "outputs": [],
      "stateMutability": "nonpayable",
      "type": "function"
    },
    {
      "inputs": [
        {
          "internalType": "bytes4",
          "name": "interfaceId",
          "type": "bytes4"
        }
      ],
      "name": "supportsInterface",
      "outputs": [
        {
          "internalType": "bool",
          "name": "",
          "type": "bool"
        }
      ],
      "stateMutability": "view",
      "type": "function"
    },
    {
      "inputs": [
        {
          "internalType": "string",
          "name": "svg",
          "type": "string"
        }
      ],
      "name": "svgToImageURI",
      "outputs": [
        {
          "internalType": "string",
          "name": "",
          "type": "string"
        }
      ],
      "stateMutability": "pure",
      "type": "function"
    },
    {
      "inputs": [],
      "name": "symbol",
      "outputs": [
        {
          "internalType": "string",
          "name": "",
          "type": "string"
        }
      ],
      "stateMutability": "view",
      "type": "function"
    },
    {
      "inputs": [
        {
          "internalType": "uint256",
          "name": "",
          "type": "uint256"
        }
      ],
      "name": "tokenURI",
      "outputs": [
        {
          "internalType": "string",
          "name": "",
          "type": "string"
        }
      ],
      "stateMutability": "view",
      "type": "function"
    },
    {
      "inputs": [
        {
          "internalType": "address",
          "name": "from",
          "type": "address"
        },
        {
          "internalType": "address",
          "name": "to",
          "type": "address"
        },
        {
          "internalType": "uint256",
          "name": "tokenId",
          "type": "uint256"
        }
      ],
      "name": "transferFrom",
      "outputs": [],
      "stateMutability": "nonpayable",
      "type": "function"
    },
    {
      "inputs": [
        {
          "internalType": "address",
          "name": "newOwner",
          "type": "address"
        }
      ],
      "name": "transferOwnership",
      "outputs": [],
      "stateMutability": "nonpayable",
      "type": "function"
    }
  ],
  "bytecode": "0x60806040523480156200001157600080fd5b5060405162003b5738038062003b578339818101604052810190620000379190620006e7565b6040518060400160405280601181526020017f506c7567672e4e6574776f726b204e46540000000000000000000000000000008152506040518060400160405280600581526020017f504c5547470000000000000000000000000000000000000000000000000000008152508160009080519060200190620000bb9291906200049a565b508060019080519060200190620000d49291906200049a565b505050620000f7620000eb6200019a60201b60201c565b620001a260201b60201c565b33600b60006101000a81548173ffffffffffffffffffffffffffffffffffffffff021916908373ffffffffffffffffffffffffffffffffffffffff160217905550600060078190555062000151826200026860201b60201c565b60089080519060200190620001689291906200049a565b506200017a816200026860201b60201c565b60099080519060200190620001919291906200049a565b505050620009bd565b600033905090565b6000600660009054906101000a900473ffffffffffffffffffffffffffffffffffffffff16905081600660006101000a81548173ffffffffffffffffffffffffffffffffffffffff021916908373ffffffffffffffffffffffffffffffffffffffff1602179055508173ffffffffffffffffffffffffffffffffffffffff168173ffffffffffffffffffffffffffffffffffffffff167f8be0079c531659141344cd1fd0a4f28419497f9722a3daafe3b4186f6b6457e060405160405180910390a35050565b606060006040518060400160405280601a81526020017f646174613a696d6167652f7376672b786d6c3b6261736536342c00000000000081525090506000620002dd84604051602001620002bd9190620007b9565b6040516020818303038152906040526200030c60201b620010a31760201c565b90508181604051602001620002f4929190620007d2565b60405160208183030381529060405292505050919050565b6060600082511415620003315760405180602001604052806000815250905062000495565b600060405180606001604052806040815260200162003b17604091399050600060036002855162000363919062000833565b6200036f9190620008bf565b60046200037d9190620008f7565b9050600060208262000390919062000833565b67ffffffffffffffff811115620003ac57620003ab62000579565b5b6040519080825280601f01601f191660200182016040528015620003df5781602001600182028036833780820191505090505b509050818152600183018586518101602084015b8183101562000450576003830192508251603f8160121c168501518253600182019150603f81600c1c168501518253600182019150603f8160061c168501518253600182019150603f8116850151825360018201915050620003f3565b6003895106600181146200046d57600281146200047e5762000489565b613d3d60f01b600283035262000489565b603d60f81b60018303525b50505050508093505050505b919050565b828054620004a89062000987565b90600052602060002090601f016020900481019282620004cc576000855562000518565b82601f10620004e757805160ff191683800117855562000518565b8280016001018555821562000518579182015b8281111562000517578251825591602001919060010190620004fa565b5b5090506200052791906200052b565b5090565b5b80821115620005465760008160009055506001016200052c565b5090565b6000604051905090565b600080fd5b600080fd5b600080fd5b600080fd5b6000601f19601f8301169050919050565b7f4e487b7100000000000000000000000000000000000000000000000000000000600052604160045260246000fd5b620005b38262000568565b810181811067ffffffffffffffff82111715620005d557620005d462000579565b5b80604052505050565b6000620005ea6200054a565b9050620005f88282620005a8565b919050565b600067ffffffffffffffff8211156200061b576200061a62000579565b5b620006268262000568565b9050602081019050919050565b60005b838110156200065357808201518184015260208101905062000636565b8381111562000663576000848401525b50505050565b6000620006806200067a84620005fd565b620005de565b9050828152602081018484840111156200069f576200069e62000563565b5b620006ac84828562000633565b509392505050565b600082601f830112620006cc57620006cb6200055e565b5b8151620006de84826020860162000669565b91505092915050565b6000806040838503121562000701576200070062000554565b5b600083015167ffffffffffffffff81111562000722576200072162000559565b5b6200073085828601620006b4565b925050602083015167ffffffffffffffff81111562000754576200075362000559565b5b6200076285828601620006b4565b9150509250929050565b600081519050919050565b600081905092915050565b60006200078f826200076c565b6200079b818562000777565b9350620007ad81856020860162000633565b80840191505092915050565b6000620007c7828462000782565b915081905092915050565b6000620007e0828562000782565b9150620007ee828462000782565b91508190509392505050565b6000819050919050565b7f4e487b7100000000000000000000000000000000000000000000000000000000600052601160045260246000fd5b60006200084082620007fa565b91506200084d83620007fa565b9250827fffffffffffffffffffffffffffffffffffffffffffffffffffffffffffffffff0382111562000885576200088462000804565b5b828201905092915050565b7f4e487b7100000000000000000000000000000000000000000000000000000000600052601260045260246000fd5b6000620008cc82620007fa565b9150620008d983620007fa565b925082620008ec57620008eb62000890565b5b828204905092915050565b60006200090482620007fa565b91506200091183620007fa565b9250817fffffffffffffffffffffffffffffffffffffffffffffffffffffffffffffffff04831182151516156200094d576200094c62000804565b5b828202905092915050565b7f4e487b7100000000000000000000000000000000000000000000000000000000600052602260045260246000fd5b60006002820490506001821680620009a057607f821691505b60208210811415620009b757620009b662000958565b5b50919050565b61314a80620009cd6000396000f3fe608060405234801561001057600080fd5b50600436106101735760003560e01c80638da5cb5b116100de578063c87b56dd11610097578063e82435e011610071578063e82435e01461044c578063e985e9c51461047c578063ea709441146104ac578063f2fde38b146104ca57610173565b8063c87b56dd146103ce578063ce606ee0146103fe578063dd5509581461041c57610173565b80638da5cb5b14610320578063926427441461033e57806395d89b411461035a5780639f409d4c14610378578063a22cb46514610396578063b88d4fde146103b257610173565b806330d871c61161013057806330d871c61461024c57806342842e0e1461027c5780636352211e146102985780636e02007d146102c857806370a08231146102e6578063715018a61461031657610173565b806301ffc9a71461017857806306fdde03146101a8578063081812fc146101c6578063095ea7b3146101f65780630b21a83b1461021257806323b872dd14610230575b600080fd5b610192600480360381019061018d9190611ec7565b6104e6565b60405161019f9190611f0f565b60405180910390f35b6101b06105c8565b6040516101bd9190611fc3565b60405180910390f35b6101e060048036038101906101db919061201b565b61065a565b6040516101ed9190612089565b60405180910390f35b610210600480360381019061020b91906120d0565b6106a0565b005b61021a6107b8565b604051610227919061211f565b60405180910390f35b61024a6004803603810190610245919061213a565b6107be565b005b610266600480360381019061026191906122c2565b61081e565b6040516102739190611fc3565b60405180910390f35b6102966004803603810190610291919061213a565b6108b1565b005b6102b260048036038101906102ad919061201b565b6108d1565b6040516102bf9190612089565b60405180910390f35b6102d0610983565b6040516102dd919061211f565b60405180910390f35b61030060048036038101906102fb919061230b565b61098d565b60405161030d919061211f565b60405180910390f35b61031e610a45565b005b610328610a59565b6040516103359190612089565b60405180910390f35b6103586004803603810190610353919061201b565b610a83565b005b610362610b3c565b60405161036f9190611fc3565b60405180910390f35b610380610bce565b60405161038d9190611fc3565b60405180910390f35b6103b060048036038101906103ab9190612364565b610c60565b005b6103cc60048036038101906103c79190612445565b610c76565b005b6103e860048036038101906103e3919061201b565b610cd8565b6040516103f59190611fc3565b60405180910390f35b610406610e63565b6040516104139190612089565b60405180910390f35b6104366004803603810190610431919061201b565b610e89565b6040516104439190612089565b60405180910390f35b6104666004803603810190610461919061201b565b610ec6565b6040516104739190612089565b60405180910390f35b610496600480360381019061049191906124c8565b610ef9565b6040516104a39190611f0f565b60405180910390f35b6104b4610f8d565b6040516104c19190611fc3565b60405180910390f35b6104e460048036038101906104df919061230b565b61101f565b005b60007f80ac58cd000000000000000000000000000000000000000000000000000000007bffffffffffffffffffffffffffffffffffffffffffffffffffffffff1916827bffffffffffffffffffffffffffffffffffffffffffffffffffffffff191614806105b157507f5b5e139f000000000000000000000000000000000000000000000000000000007bffffffffffffffffffffffffffffffffffffffffffffffffffffffff1916827bffffffffffffffffffffffffffffffffffffffffffffffffffffffff1916145b806105c157506105c08261121c565b5b9050919050565b6060600080546105d790612537565b80601f016020809104026020016040519081016040528092919081815260200182805461060390612537565b80156106505780601f1061062557610100808354040283529160200191610650565b820191906000526020600020905b81548152906001019060200180831161063357829003601f168201915b5050505050905090565b600061066582611286565b6004600083815260200190815260200160002060009054906101000a900473ffffffffffffffffffffffffffffffffffffffff169050919050565b60006106ab826108d1565b90508073ffffffffffffffffffffffffffffffffffffffff168373ffffffffffffffffffffffffffffffffffffffff16141561071c576040517f08c379a0000000000000000000000000000000000000000000000000000000008152600401610713906125db565b60405180910390fd5b8073ffffffffffffffffffffffffffffffffffffffff1661073b6112d1565b73ffffffffffffffffffffffffffffffffffffffff16148061076a5750610769816107646112d1565b610ef9565b5b6107a9576040517f08c379a00000000000000000000000000000000000000000000000000000000081526004016107a09061266d565b60405180910390fd5b6107b383836112d9565b505050565b60075481565b6107cf6107c96112d1565b82611392565b61080e576040517f08c379a0000000000000000000000000000000000000000000000000000000008152600401610805906126ff565b60405180910390fd5b610819838383611427565b505050565b606060006040518060400160405280601a81526020017f646174613a696d6167652f7376672b786d6c3b6261736536342c0000000000008152509050600061088484604051602001610870919061275b565b6040516020818303038152906040526110a3565b90508181604051602001610899929190612772565b60405160208183030381529060405292505050919050565b6108cc83838360405180602001604052806000815250610c76565b505050565b6000806002600084815260200190815260200160002060009054906101000a900473ffffffffffffffffffffffffffffffffffffffff169050600073ffffffffffffffffffffffffffffffffffffffff168173ffffffffffffffffffffffffffffffffffffffff16141561097a576040517f08c379a0000000000000000000000000000000000000000000000000000000008152600401610971906127e2565b60405180910390fd5b80915050919050565b6000600754905090565b60008073ffffffffffffffffffffffffffffffffffffffff168273ffffffffffffffffffffffffffffffffffffffff1614156109fe576040517f08c379a00000000000000000000000000000000000000000000000000000000081526004016109f590612874565b60405180910390fd5b600360008373ffffffffffffffffffffffffffffffffffffffff1673ffffffffffffffffffffffffffffffffffffffff168152602001908152602001600020549050919050565b610a4d61168e565b610a57600061170c565b565b6000600660009054906101000a900473ffffffffffffffffffffffffffffffffffffffff16905090565b80600a819055506001600754610a9991906128c3565b600781905550610aab336007546117d2565b33600c6000600754815260200190815260200160002060006101000a81548173ffffffffffffffffffffffffffffffffffffffff021916908373ffffffffffffffffffffffffffffffffffffffff1602179055506007547fd329d47a9928e7ffa63146b7b8947f74c1e05145d61dc61ce96e83df1339c04b82604051610b31919061211f565b60405180910390a250565b606060018054610b4b90612537565b80601f0160208091040260200160405190810160405280929190818152602001828054610b7790612537565b8015610bc45780601f10610b9957610100808354040283529160200191610bc4565b820191906000526020600020905b815481529060010190602001808311610ba757829003601f168201915b5050505050905090565b606060098054610bdd90612537565b80601f0160208091040260200160405190810160405280929190818152602001828054610c0990612537565b8015610c565780601f10610c2b57610100808354040283529160200191610c56565b820191906000526020600020905b815481529060010190602001808311610c3957829003601f168201915b5050505050905090565b610c72610c6b6112d1565b83836117f0565b5050565b610c87610c816112d1565b83611392565b610cc6576040517f08c379a0000000000000000000000000000000000000000000000000000000008152600401610cbd906126ff565b60405180910390fd5b610cd28484848461195d565b50505050565b6060600060088054610ce990612537565b80601f0160208091040260200160405190810160405280929190818152602001828054610d1590612537565b8015610d625780601f10610d3757610100808354040283529160200191610d62565b820191906000526020600020905b815481529060010190602001808311610d4557829003601f168201915b505050505090506002600a541415610e025760098054610d8190612537565b80601f0160208091040260200160405190810160405280929190818152602001828054610dad90612537565b8015610dfa5780601f10610dcf57610100808354040283529160200191610dfa565b820191906000526020600020905b815481529060010190602001808311610ddd57829003601f168201915b505050505090505b610e0a6119b9565b610e3b610e156105c8565b83604051602001610e27929190612abb565b6040516020818303038152906040526110a3565b604051602001610e4c929190612772565b604051602081830303815290604052915050919050565b600b60009054906101000a900473ffffffffffffffffffffffffffffffffffffffff1681565b6000600c600083815260200190815260200160002060009054906101000a900473ffffffffffffffffffffffffffffffffffffffff169050919050565b600c6020528060005260406000206000915054906101000a900473ffffffffffffffffffffffffffffffffffffffff1681565b6000600560008473ffffffffffffffffffffffffffffffffffffffff1673ffffffffffffffffffffffffffffffffffffffff16815260200190815260200160002060008373ffffffffffffffffffffffffffffffffffffffff1673ffffffffffffffffffffffffffffffffffffffff16815260200190815260200160002060009054906101000a900460ff16905092915050565b606060088054610f9c90612537565b80601f0160208091040260200160405190810160405280929190818152602001828054610fc890612537565b80156110155780601f10610fea57610100808354040283529160200191611015565b820191906000526020600020905b815481529060010190602001808311610ff857829003601f168201915b5050505050905090565b61102761168e565b600073ffffffffffffffffffffffffffffffffffffffff168173ffffffffffffffffffffffffffffffffffffffff161415611097576040517f08c379a000000000000000000000000000000000000000000000000000000000815260040161108e90612b7d565b60405180910390fd5b6110a08161170c565b50565b60606000825114156110c657604051806020016040528060008152509050611217565b60006040518060600160405280604081526020016130d560409139905060006003600285516110f591906128c3565b6110ff9190612bcc565b600461110b9190612bfd565b9050600060208261111c91906128c3565b67ffffffffffffffff81111561113557611134612197565b5b6040519080825280601f01601f1916602001820160405280156111675781602001600182028036833780820191505090505b509050818152600183018586518101602084015b818310156111d6576003830192508251603f8160121c168501518253600182019150603f81600c1c168501518253600182019150603f8160061c168501518253600182019150603f811685015182536001820191505061117b565b6003895106600181146111f057600281146112005761120b565b613d3d60f01b600283035261120b565b603d60f81b60018303525b50505050508093505050505b919050565b60007f01ffc9a7000000000000000000000000000000000000000000000000000000007bffffffffffffffffffffffffffffffffffffffffffffffffffffffff1916827bffffffffffffffffffffffffffffffffffffffffffffffffffffffff1916149050919050565b61128f816119f6565b6112ce576040517f08c379a00000000000000000000000000000000000000000000000000000000081526004016112c5906127e2565b60405180910390fd5b50565b600033905090565b816004600083815260200190815260200160002060006101000a81548173ffffffffffffffffffffffffffffffffffffffff021916908373ffffffffffffffffffffffffffffffffffffffff160217905550808273ffffffffffffffffffffffffffffffffffffffff1661134c836108d1565b73ffffffffffffffffffffffffffffffffffffffff167f8c5be1e5ebec7d5bd14f71427d1e84f3dd0314c0f7b2291e5b200ac8c7c3b92560405160405180910390a45050565b60008061139e836108d1565b90508073ffffffffffffffffffffffffffffffffffffffff168473ffffffffffffffffffffffffffffffffffffffff1614806113e057506113df8185610ef9565b5b8061141e57508373ffffffffffffffffffffffffffffffffffffffff166114068461065a565b73ffffffffffffffffffffffffffffffffffffffff16145b91505092915050565b8273ffffffffffffffffffffffffffffffffffffffff16611447826108d1565b73ffffffffffffffffffffffffffffffffffffffff161461149d576040517f08c379a000000000000000000000000000000000000000000000000000000000815260040161149490612cc9565b60405180910390fd5b600073ffffffffffffffffffffffffffffffffffffffff168273ffffffffffffffffffffffffffffffffffffffff16141561150d576040517f08c379a000000000000000000000000000000000000000000000000000000000815260040161150490612d5b565b60405180910390fd5b611518838383611a62565b6115236000826112d9565b6001600360008573ffffffffffffffffffffffffffffffffffffffff1673ffffffffffffffffffffffffffffffffffffffff16815260200190815260200160002060008282546115739190612d7b565b925050819055506001600360008473ffffffffffffffffffffffffffffffffffffffff1673ffffffffffffffffffffffffffffffffffffffff16815260200190815260200160002060008282546115ca91906128c3565b92505081905550816002600083815260200190815260200160002060006101000a81548173ffffffffffffffffffffffffffffffffffffffff021916908373ffffffffffffffffffffffffffffffffffffffff160217905550808273ffffffffffffffffffffffffffffffffffffffff168473ffffffffffffffffffffffffffffffffffffffff167fddf252ad1be2c89b69c2b068fc378daa952ba7f163c4a11628f55a4df523b3ef60405160405180910390a4611689838383611a67565b505050565b6116966112d1565b73ffffffffffffffffffffffffffffffffffffffff166116b4610a59565b73ffffffffffffffffffffffffffffffffffffffff161461170a576040517f08c379a000000000000000000000000000000000000000000000000000000000815260040161170190612dfb565b60405180910390fd5b565b6000600660009054906101000a900473ffffffffffffffffffffffffffffffffffffffff16905081600660006101000a81548173ffffffffffffffffffffffffffffffffffffffff021916908373ffffffffffffffffffffffffffffffffffffffff1602179055508173ffffffffffffffffffffffffffffffffffffffff168173ffffffffffffffffffffffffffffffffffffffff167f8be0079c531659141344cd1fd0a4f28419497f9722a3daafe3b4186f6b6457e060405160405180910390a35050565b6117ec828260405180602001604052806000815250611a6c565b5050565b8173ffffffffffffffffffffffffffffffffffffffff168373ffffffffffffffffffffffffffffffffffffffff16141561185f576040517f08c379a000000000000000000000000000000000000000000000000000000000815260040161185690612e67565b60405180910390fd5b80600560008573ffffffffffffffffffffffffffffffffffffffff1673ffffffffffffffffffffffffffffffffffffffff16815260200190815260200160002060008473ffffffffffffffffffffffffffffffffffffffff1673ffffffffffffffffffffffffffffffffffffffff16815260200190815260200160002060006101000a81548160ff0219169083151502179055508173ffffffffffffffffffffffffffffffffffffffff168373ffffffffffffffffffffffffffffffffffffffff167f17307eab39ab6107e8899845ad3d59bd9653f200f220920489ca2b5937696c31836040516119509190611f0f565b60405180910390a3505050565b611968848484611427565b61197484848484611ac7565b6119b3576040517f08c379a00000000000000000000000000000000000000000000000000000000081526004016119aa90612ef9565b60405180910390fd5b50505050565b60606040518060400160405280601d81526020017f646174613a6170706c69636174696f6e2f6a736f6e3b6261736536342c000000815250905090565b60008073ffffffffffffffffffffffffffffffffffffffff166002600084815260200190815260200160002060009054906101000a900473ffffffffffffffffffffffffffffffffffffffff1673ffffffffffffffffffffffffffffffffffffffff1614159050919050565b505050565b505050565b611a768383611c5e565b611a836000848484611ac7565b611ac2576040517f08c379a0000000000000000000000000000000000000000000000000000000008152600401611ab990612ef9565b60405180910390fd5b505050565b6000611ae88473ffffffffffffffffffffffffffffffffffffffff16611e38565b15611c51578373ffffffffffffffffffffffffffffffffffffffff1663150b7a02611b116112d1565b8786866040518563ffffffff1660e01b8152600401611b339493929190612f6e565b602060405180830381600087803b158015611b4d57600080fd5b505af1925050508015611b7e57506040513d601f19601f82011682018060405250810190611b7b9190612fcf565b60015b611c01573d8060008114611bae576040519150601f19603f3d011682016040523d82523d6000602084013e611bb3565b606091505b50600081511415611bf9576040517f08c379a0000000000000000000000000000000000000000000000000000000008152600401611bf090612ef9565b60405180910390fd5b805181602001fd5b63150b7a0260e01b7bffffffffffffffffffffffffffffffffffffffffffffffffffffffff1916817bffffffffffffffffffffffffffffffffffffffffffffffffffffffff191614915050611c56565b600190505b949350505050565b600073ffffffffffffffffffffffffffffffffffffffff168273ffffffffffffffffffffffffffffffffffffffff161415611cce576040517f08c379a0000000000000000000000000000000000000000000000000000000008152600401611cc590613048565b60405180910390fd5b611cd7816119f6565b15611d17576040517f08c379a0000000000000000000000000000000000000000000000000000000008152600401611d0e906130b4565b60405180910390fd5b611d2360008383611a62565b6001600360008473ffffffffffffffffffffffffffffffffffffffff1673ffffffffffffffffffffffffffffffffffffffff1681526020019081526020016000206000828254611d7391906128c3565b92505081905550816002600083815260200190815260200160002060006101000a81548173ffffffffffffffffffffffffffffffffffffffff021916908373ffffffffffffffffffffffffffffffffffffffff160217905550808273ffffffffffffffffffffffffffffffffffffffff16600073ffffffffffffffffffffffffffffffffffffffff167fddf252ad1be2c89b69c2b068fc378daa952ba7f163c4a11628f55a4df523b3ef60405160405180910390a4611e3460008383611a67565b5050565b6000808273ffffffffffffffffffffffffffffffffffffffff163b119050919050565b6000604051905090565b600080fd5b600080fd5b60007fffffffff0000000000000000000000000000000000000000000000000000000082169050919050565b611ea481611e6f565b8114611eaf57600080fd5b50565b600081359050611ec181611e9b565b92915050565b600060208284031215611edd57611edc611e65565b5b6000611eeb84828501611eb2565b91505092915050565b60008115159050919050565b611f0981611ef4565b82525050565b6000602082019050611f246000830184611f00565b92915050565b600081519050919050565b600082825260208201905092915050565b60005b83811015611f64578082015181840152602081019050611f49565b83811115611f73576000848401525b50505050565b6000601f19601f8301169050919050565b6000611f9582611f2a565b611f9f8185611f35565b9350611faf818560208601611f46565b611fb881611f79565b840191505092915050565b60006020820190508181036000830152611fdd8184611f8a565b905092915050565b6000819050919050565b611ff881611fe5565b811461200357600080fd5b50565b60008135905061201581611fef565b92915050565b60006020828403121561203157612030611e65565b5b600061203f84828501612006565b91505092915050565b600073ffffffffffffffffffffffffffffffffffffffff82169050919050565b600061207382612048565b9050919050565b61208381612068565b82525050565b600060208201905061209e600083018461207a565b92915050565b6120ad81612068565b81146120b857600080fd5b50565b6000813590506120ca816120a4565b92915050565b600080604083850312156120e7576120e6611e65565b5b60006120f5858286016120bb565b925050602061210685828601612006565b9150509250929050565b61211981611fe5565b82525050565b60006020820190506121346000830184612110565b92915050565b60008060006060848603121561215357612152611e65565b5b6000612161868287016120bb565b9350506020612172868287016120bb565b925050604061218386828701612006565b9150509250925092565b600080fd5b600080fd5b7f4e487b7100000000000000000000000000000000000000000000000000000000600052604160045260246000fd5b6121cf82611f79565b810181811067ffffffffffffffff821117156121ee576121ed612197565b5b80604052505050565b6000612201611e5b565b905061220d82826121c6565b919050565b600067ffffffffffffffff82111561222d5761222c612197565b5b61223682611f79565b9050602081019050919050565b82818337600083830152505050565b600061226561226084612212565b6121f7565b90508281526020810184848401111561228157612280612192565b5b61228c848285612243565b509392505050565b600082601f8301126122a9576122a861218d565b5b81356122b9848260208601612252565b91505092915050565b6000602082840312156122d8576122d7611e65565b5b600082013567ffffffffffffffff8111156122f6576122f5611e6a565b5b61230284828501612294565b91505092915050565b60006020828403121561232157612320611e65565b5b600061232f848285016120bb565b91505092915050565b61234181611ef4565b811461234c57600080fd5b50565b60008135905061235e81612338565b92915050565b6000806040838503121561237b5761237a611e65565b5b6000612389858286016120bb565b925050602061239a8582860161234f565b9150509250929050565b600067ffffffffffffffff8211156123bf576123be612197565b5b6123c882611f79565b9050602081019050919050565b60006123e86123e3846123a4565b6121f7565b90508281526020810184848401111561240457612403612192565b5b61240f848285612243565b509392505050565b600082601f83011261242c5761242b61218d565b5b813561243c8482602086016123d5565b91505092915050565b6000806000806080858703121561245f5761245e611e65565b5b600061246d878288016120bb565b945050602061247e878288016120bb565b935050604061248f87828801612006565b925050606085013567ffffffffffffffff8111156124b0576124af611e6a565b5b6124bc87828801612417565b91505092959194509250565b600080604083850312156124df576124de611e65565b5b60006124ed858286016120bb565b92505060206124fe858286016120bb565b9150509250929050565b7f4e487b7100000000000000000000000000000000000000000000000000000000600052602260045260246000fd5b6000600282049050600182168061254f57607f821691505b6020821081141561256357612562612508565b5b50919050565b7f4552433732313a20617070726f76616c20746f2063757272656e74206f776e6560008201527f7200000000000000000000000000000000000000000000000000000000000000602082015250565b60006125c5602183611f35565b91506125d082612569565b604082019050919050565b600060208201905081810360008301526125f4816125b8565b9050919050565b7f4552433732313a20617070726f76652063616c6c6572206973206e6f7420746f60008201527f6b656e206f776e6572206e6f7220617070726f76656420666f7220616c6c0000602082015250565b6000612657603e83611f35565b9150612662826125fb565b604082019050919050565b600060208201905081810360008301526126868161264a565b9050919050565b7f4552433732313a2063616c6c6572206973206e6f7420746f6b656e206f776e6560008201527f72206e6f7220617070726f766564000000000000000000000000000000000000602082015250565b60006126e9602e83611f35565b91506126f48261268d565b604082019050919050565b60006020820190508181036000830152612718816126dc565b9050919050565b600081905092915050565b600061273582611f2a565b61273f818561271f565b935061274f818560208601611f46565b80840191505092915050565b6000612767828461272a565b915081905092915050565b600061277e828561272a565b915061278a828461272a565b91508190509392505050565b7f4552433732313a20696e76616c696420746f6b656e2049440000000000000000600082015250565b60006127cc601883611f35565b91506127d782612796565b602082019050919050565b600060208201905081810360008301526127fb816127bf565b9050919050565b7f4552433732313a2061646472657373207a65726f206973206e6f74206120766160008201527f6c6964206f776e65720000000000000000000000000000000000000000000000602082015250565b600061285e602983611f35565b915061286982612802565b604082019050919050565b6000602082019050818103600083015261288d81612851565b9050919050565b7f4e487b7100000000000000000000000000000000000000000000000000000000600052601160045260246000fd5b60006128ce82611fe5565b91506128d983611fe5565b9250827fffffffffffffffffffffffffffffffffffffffffffffffffffffffffffffffff0382111561290e5761290d612894565b5b828201905092915050565b7f7b226e616d65223a220000000000000000000000000000000000000000000000600082015250565b600061294f60098361271f565b915061295a82612919565b600982019050919050565b7f222c20226465736372697074696f6e223a22416e204e465420646566696e657360008201527f20796f757220506c756767204d656d62657273686970222c2000000000000000602082015250565b60006129c160398361271f565b91506129cc82612965565b603982019050919050565b7f2261747472696275746573223a205b7b2274726169745f74797065223a20226360008201527f6f6f6c6e657373222c202276616c7565223a203130307d5d2c2022696d61676560208201527f223a220000000000000000000000000000000000000000000000000000000000604082015250565b6000612a5960438361271f565b9150612a64826129d7565b604382019050919050565b7f227d000000000000000000000000000000000000000000000000000000000000600082015250565b6000612aa560028361271f565b9150612ab082612a6f565b600282019050919050565b6000612ac682612942565b9150612ad2828561272a565b9150612add826129b4565b9150612ae882612a4c565b9150612af4828461272a565b9150612aff82612a98565b91508190509392505050565b7f4f776e61626c653a206e6577206f776e657220697320746865207a65726f206160008201527f6464726573730000000000000000000000000000000000000000000000000000602082015250565b6000612b67602683611f35565b9150612b7282612b0b565b604082019050919050565b60006020820190508181036000830152612b9681612b5a565b9050919050565b7f4e487b7100000000000000000000000000000000000000000000000000000000600052601260045260246000fd5b6000612bd782611fe5565b9150612be283611fe5565b925082612bf257612bf1612b9d565b5b828204905092915050565b6000612c0882611fe5565b9150612c1383611fe5565b9250817fffffffffffffffffffffffffffffffffffffffffffffffffffffffffffffffff0483118215151615612c4c57612c4b612894565b5b828202905092915050565b7f4552433732313a207472616e736665722066726f6d20696e636f72726563742060008201527f6f776e6572000000000000000000000000000000000000000000000000000000602082015250565b6000612cb3602583611f35565b9150612cbe82612c57565b604082019050919050565b60006020820190508181036000830152612ce281612ca6565b9050919050565b7f4552433732313a207472616e7366657220746f20746865207a65726f2061646460008201527f7265737300000000000000000000000000000000000000000000000000000000602082015250565b6000612d45602483611f35565b9150612d5082612ce9565b604082019050919050565b60006020820190508181036000830152612d7481612d38565b9050919050565b6000612d8682611fe5565b9150612d9183611fe5565b925082821015612da457612da3612894565b5b828203905092915050565b7f4f776e61626c653a2063616c6c6572206973206e6f7420746865206f776e6572600082015250565b6000612de5602083611f35565b9150612df082612daf565b602082019050919050565b60006020820190508181036000830152612e1481612dd8565b9050919050565b7f4552433732313a20617070726f766520746f2063616c6c657200000000000000600082015250565b6000612e51601983611f35565b9150612e5c82612e1b565b602082019050919050565b60006020820190508181036000830152612e8081612e44565b9050919050565b7f4552433732313a207472616e7366657220746f206e6f6e20455243373231526560008201527f63656976657220696d706c656d656e7465720000000000000000000000000000602082015250565b6000612ee3603283611f35565b9150612eee82612e87565b604082019050919050565b60006020820190508181036000830152612f1281612ed6565b9050919050565b600081519050919050565b600082825260208201905092915050565b6000612f4082612f19565b612f4a8185612f24565b9350612f5a818560208601611f46565b612f6381611f79565b840191505092915050565b6000608082019050612f83600083018761207a565b612f90602083018661207a565b612f9d6040830185612110565b8181036060830152612faf8184612f35565b905095945050505050565b600081519050612fc981611e9b565b92915050565b600060208284031215612fe557612fe4611e65565b5b6000612ff384828501612fba565b91505092915050565b7f4552433732313a206d696e7420746f20746865207a65726f2061646472657373600082015250565b6000613032602083611f35565b915061303d82612ffc565b602082019050919050565b6000602082019050818103600083015261306181613025565b9050919050565b7f4552433732313a20746f6b656e20616c7265616479206d696e74656400000000600082015250565b600061309e601c83611f35565b91506130a982613068565b602082019050919050565b600060208201905081810360008301526130cd81613091565b905091905056fe4142434445464748494a4b4c4d4e4f505152535455565758595a6162636465666768696a6b6c6d6e6f707172737475767778797a303132333435363738392b2fa264697066735822122092c95b6c2b23dfbca37c5d0297e6058c88aaf7f2add9d3deb909a5b506f8190764736f6c634300080800334142434445464748494a4b4c4d4e4f505152535455565758595a6162636465666768696a6b6c6d6e6f707172737475767778797a303132333435363738392b2f",
  "linkReferences": {},
  "deployedLinkReferences": {}
}