{
  "_format": "hh-sol-artifact-1",
  "contractName": "PluggNFT",
  "sourceName": "contracts/PluggNFT.sol",
  "abi": [
    {
      "inputs": [],
      "stateMutability": "nonpayable",
      "type": "constructor"
    },
    {
      "anonymous": false,
      "inputs": [
        {
          "indexed": true,
          "internalType": "address",
          "name": "owner",
          "type": "address"
        },
        {
          "indexed": true,
          "internalType": "address",
          "name": "approved",
          "type": "address"
        },
        {
          "indexed": true,
          "internalType": "uint256",
          "name": "tokenId",
          "type": "uint256"
        }
      ],
      "name": "Approval",
      "type": "event"
    },
    {
      "anonymous": false,
      "inputs": [
        {
          "indexed": true,
          "internalType": "address",
          "name": "owner",
          "type": "address"
        },
        {
          "indexed": true,
          "internalType": "address",
          "name": "operator",
          "type": "address"
        },
        {
          "indexed": false,
          "internalType": "bool",
          "name": "approved",
          "type": "bool"
        }
      ],
      "name": "ApprovalForAll",
      "type": "event"
    },
    {
      "anonymous": false,
      "inputs": [
        {
          "indexed": true,
          "internalType": "uint256",
          "name": "tokenId",
          "type": "uint256"
        },
        {
          "indexed": false,
          "internalType": "uint256",
          "name": "inputNFT_num",
          "type": "uint256"
        }
      ],
      "name": "CreatedNFT",
      "type": "event"
    },
    {
      "anonymous": false,
      "inputs": [
        {
          "indexed": true,
          "internalType": "address",
          "name": "previousOwner",
          "type": "address"
        },
        {
          "indexed": true,
          "internalType": "address",
          "name": "newOwner",
          "type": "address"
        }
      ],
      "name": "OwnershipTransferred",
      "type": "event"
    },
    {
      "anonymous": false,
      "inputs": [
        {
          "indexed": true,
          "internalType": "address",
          "name": "from",
          "type": "address"
        },
        {
          "indexed": true,
          "internalType": "address",
          "name": "to",
          "type": "address"
        },
        {
          "indexed": true,
          "internalType": "uint256",
          "name": "tokenId",
          "type": "uint256"
        }
      ],
      "name": "Transfer",
      "type": "event"
    },
    {
      "inputs": [
        {
          "internalType": "address",
          "name": "to",
          "type": "address"
        },
        {
          "internalType": "uint256",
          "name": "tokenId",
          "type": "uint256"
        }
      ],
      "name": "approve",
      "outputs": [],
      "stateMutability": "nonpayable",
      "type": "function"
    },
    {
      "inputs": [
        {
          "internalType": "address",
          "name": "owner",
          "type": "address"
        }
      ],
      "name": "balanceOf",
      "outputs": [
        {
          "internalType": "uint256",
          "name": "",
          "type": "uint256"
        }
      ],
      "stateMutability": "view",
      "type": "function"
    },
    {
      "inputs": [
        {
          "internalType": "uint256",
          "name": "inputNFT_num",
          "type": "uint256"
        },
        {
          "internalType": "uint256",
          "name": "mint_quantity",
          "type": "uint256"
        },
        {
          "internalType": "string",
          "name": "_nftEmail",
          "type": "string"
        }
      ],
      "name": "batchMint",
      "outputs": [],
      "stateMutability": "nonpayable",
      "type": "function"
    },
    {
      "inputs": [],
      "name": "contractOwner",
      "outputs": [
        {
          "internalType": "address",
          "name": "",
          "type": "address"
        }
      ],
      "stateMutability": "view",
      "type": "function"
    },
    {
      "inputs": [
        {
          "internalType": "uint256",
          "name": "tokenId",
          "type": "uint256"
        }
      ],
      "name": "getApproved",
      "outputs": [
        {
          "internalType": "address",
          "name": "",
          "type": "address"
        }
      ],
      "stateMutability": "view",
      "type": "function"
    },
    {
      "inputs": [
        {
          "internalType": "uint256",
          "name": "nftNumber",
          "type": "uint256"
        }
      ],
      "name": "getOwnerAddress",
      "outputs": [
        {
          "internalType": "address",
          "name": "",
          "type": "address"
        }
      ],
      "stateMutability": "view",
      "type": "function"
    },
    {
      "inputs": [],
      "name": "getTokenCounter",
      "outputs": [
        {
          "internalType": "uint256",
          "name": "",
          "type": "uint256"
        }
      ],
      "stateMutability": "view",
      "type": "function"
    },
    {
      "inputs": [
        {
          "internalType": "address",
          "name": "owner",
          "type": "address"
        },
        {
          "internalType": "address",
          "name": "operator",
          "type": "address"
        }
      ],
      "name": "isApprovedForAll",
      "outputs": [
        {
          "internalType": "bool",
          "name": "",
          "type": "bool"
        }
      ],
      "stateMutability": "view",
      "type": "function"
    },
    {
      "inputs": [
        {
          "internalType": "uint256",
          "name": "inputNFT_num",
          "type": "uint256"
        },
        {
          "internalType": "string",
          "name": "_nftEmail",
          "type": "string"
        }
      ],
      "name": "mintNFT",
      "outputs": [],
      "stateMutability": "nonpayable",
      "type": "function"
    },
    {
      "inputs": [],
      "name": "name",
      "outputs": [
        {
          "internalType": "string",
          "name": "",
          "type": "string"
        }
      ],
      "stateMutability": "view",
      "type": "function"
    },
    {
      "inputs": [],
      "name": "nftEmail",
      "outputs": [
        {
          "internalType": "string",
          "name": "",
          "type": "string"
        }
      ],
      "stateMutability": "view",
      "type": "function"
    },
    {
      "inputs": [
        {
          "internalType": "uint256",
          "name": "",
          "type": "uint256"
        }
      ],
      "name": "nftMinters",
      "outputs": [
        {
          "internalType": "address",
          "name": "",
          "type": "address"
        }
      ],
      "stateMutability": "view",
      "type": "function"
    },
    {
      "inputs": [],
      "name": "owner",
      "outputs": [
        {
          "internalType": "address",
          "name": "",
          "type": "address"
        }
      ],
      "stateMutability": "view",
      "type": "function"
    },
    {
      "inputs": [
        {
          "internalType": "uint256",
          "name": "tokenId",
          "type": "uint256"
        }
      ],
      "name": "ownerOf",
      "outputs": [
        {
          "internalType": "address",
          "name": "",
          "type": "address"
        }
      ],
      "stateMutability": "view",
      "type": "function"
    },
    {
      "inputs": [],
      "name": "renounceOwnership",
      "outputs": [],
      "stateMutability": "nonpayable",
      "type": "function"
    },
    {
      "inputs": [],
      "name": "s_tokenCounter",
      "outputs": [
        {
          "internalType": "uint256",
          "name": "",
          "type": "uint256"
        }
      ],
      "stateMutability": "view",
      "type": "function"
    },
    {
      "inputs": [
        {
          "internalType": "address",
          "name": "from",
          "type": "address"
        },
        {
          "internalType": "address",
          "name": "to",
          "type": "address"
        },
        {
          "internalType": "uint256",
          "name": "tokenId",
          "type": "uint256"
        }
      ],
      "name": "safeTransferFrom",
      "outputs": [],
      "stateMutability": "nonpayable",
      "type": "function"
    },
    {
      "inputs": [
        {
          "internalType": "address",
          "name": "from",
          "type": "address"
        },
        {
          "internalType": "address",
          "name": "to",
          "type": "address"
        },
        {
          "internalType": "uint256",
          "name": "tokenId",
          "type": "uint256"
        },
        {
          "internalType": "bytes",
          "name": "data",
          "type": "bytes"
        }
      ],
      "name": "safeTransferFrom",
      "outputs": [],
      "stateMutability": "nonpayable",
      "type": "function"
    },
    {
      "inputs": [
        {
          "internalType": "address",
          "name": "operator",
          "type": "address"
        },
        {
          "internalType": "bool",
          "name": "approved",
          "type": "bool"
        }
      ],
      "name": "setApprovalForAll",
      "outputs": [],
      "stateMutability": "nonpayable",
      "type": "function"
    },
    {
      "inputs": [
        {
          "internalType": "bytes4",
          "name": "interfaceId",
          "type": "bytes4"
        }
      ],
      "name": "supportsInterface",
      "outputs": [
        {
          "internalType": "bool",
          "name": "",
          "type": "bool"
        }
      ],
      "stateMutability": "view",
      "type": "function"
    },
    {
      "inputs": [
        {
          "internalType": "string",
          "name": "svg",
          "type": "string"
        }
      ],
      "name": "svgToImageURI",
      "outputs": [
        {
          "internalType": "string",
          "name": "",
          "type": "string"
        }
      ],
      "stateMutability": "pure",
      "type": "function"
    },
    {
      "inputs": [],
      "name": "symbol",
      "outputs": [
        {
          "internalType": "string",
          "name": "",
          "type": "string"
        }
      ],
      "stateMutability": "view",
      "type": "function"
    },
    {
      "inputs": [
        {
          "internalType": "uint256",
          "name": "",
          "type": "uint256"
        }
      ],
      "name": "tokenURI",
      "outputs": [
        {
          "internalType": "string",
          "name": "",
          "type": "string"
        }
      ],
      "stateMutability": "view",
      "type": "function"
    },
    {
      "inputs": [
        {
          "internalType": "address",
          "name": "from",
          "type": "address"
        },
        {
          "internalType": "address",
          "name": "to",
          "type": "address"
        },
        {
          "internalType": "uint256",
          "name": "tokenId",
          "type": "uint256"
        }
      ],
      "name": "transferFrom",
      "outputs": [],
      "stateMutability": "nonpayable",
      "type": "function"
    },
    {
      "inputs": [
        {
          "internalType": "address",
          "name": "newOwner",
          "type": "address"
        }
      ],
      "name": "transferOwnership",
      "outputs": [],
      "stateMutability": "nonpayable",
      "type": "function"
    }
  ],
  "bytecode": "0x60806040526040518060600160405280603581526020016200374c60359139600b90805190602001906200003592919062000253565b506040518060600160405280603581526020016200378160359139600c90805190602001906200006792919062000253565b503480156200007557600080fd5b506040518060400160405280601181526020017f506c7567672e4e6574776f726b204e46540000000000000000000000000000008152506040518060400160405280600581526020017f504c5547470000000000000000000000000000000000000000000000000000008152508160009080519060200190620000fa92919062000253565b5080600190805190602001906200011392919062000253565b505050620001366200012a6200018560201b60201c565b6200018d60201b60201c565b33600960006101000a81548173ffffffffffffffffffffffffffffffffffffffff021916908373ffffffffffffffffffffffffffffffffffffffff160217905550600060078190555062000368565b600033905090565b6000600660009054906101000a900473ffffffffffffffffffffffffffffffffffffffff16905081600660006101000a81548173ffffffffffffffffffffffffffffffffffffffff021916908373ffffffffffffffffffffffffffffffffffffffff1602179055508173ffffffffffffffffffffffffffffffffffffffff168173ffffffffffffffffffffffffffffffffffffffff167f8be0079c531659141344cd1fd0a4f28419497f9722a3daafe3b4186f6b6457e060405160405180910390a35050565b828054620002619062000332565b90600052602060002090601f016020900481019282620002855760008555620002d1565b82601f10620002a057805160ff1916838001178555620002d1565b82800160010185558215620002d1579182015b82811115620002d0578251825591602001919060010190620002b3565b5b509050620002e09190620002e4565b5090565b5b80821115620002ff576000816000905550600101620002e5565b5090565b7f4e487b7100000000000000000000000000000000000000000000000000000000600052602260045260246000fd5b600060028204905060018216806200034b57607f821691505b6020821081141562000362576200036162000303565b5b50919050565b6133d480620003786000396000f3fe608060405234801561001057600080fd5b50600436106101735760003560e01c8063715018a6116100de578063c87b56dd11610097578063e82435e011610071578063e82435e01461044a578063e985e9c51461047a578063f0badf26146104aa578063f2fde38b146104c857610173565b8063c87b56dd146103cc578063ce606ee0146103fc578063dd5509581461041a57610173565b8063715018a6146103325780638b515fd51461033c5780638da5cb5b1461035857806395d89b4114610376578063a22cb46514610394578063b88d4fde146103b057610173565b806323b872dd1161013057806323b872dd1461024c57806330d871c61461026857806342842e0e146102985780636352211e146102b45780636e02007d146102e457806370a082311461030257610173565b806301ffc9a71461017857806306fdde03146101a8578063081812fc146101c6578063095ea7b3146101f65780630b21a83b146102125780631a0c8fa014610230575b600080fd5b610192600480360381019061018d9190611f50565b6104e4565b60405161019f9190611f98565b60405180910390f35b6101b06105c6565b6040516101bd919061204c565b60405180910390f35b6101e060048036038101906101db91906120a4565b610658565b6040516101ed9190612112565b60405180910390f35b610210600480360381019061020b9190612159565b61069e565b005b61021a6107b6565b60405161022791906121a8565b60405180910390f35b61024a600480360381019061024591906122f8565b6107bc565b005b61026660048036038101906102619190612354565b61088d565b005b610282600480360381019061027d91906123a7565b6108ed565b60405161028f919061204c565b60405180910390f35b6102b260048036038101906102ad9190612354565b610980565b005b6102ce60048036038101906102c991906120a4565b6109a0565b6040516102db9190612112565b60405180910390f35b6102ec610a52565b6040516102f991906121a8565b60405180910390f35b61031c600480360381019061031791906123f0565b610a5c565b60405161032991906121a8565b60405180910390f35b61033a610b14565b005b6103566004803603810190610351919061241d565b610b28565b005b610360610b8b565b60405161036d9190612112565b60405180910390f35b61037e610bb5565b60405161038b919061204c565b60405180910390f35b6103ae60048036038101906103a991906124b8565b610c47565b005b6103ca60048036038101906103c59190612599565b610c5d565b005b6103e660048036038101906103e191906120a4565b610cbf565b6040516103f3919061204c565b60405180910390f35b610404610e4d565b6040516104119190612112565b60405180910390f35b610434600480360381019061042f91906120a4565b610e73565b6040516104419190612112565b60405180910390f35b610464600480360381019061045f91906120a4565b610eb0565b6040516104719190612112565b60405180910390f35b610494600480360381019061048f919061261c565b610ee3565b6040516104a19190611f98565b60405180910390f35b6104b2610f77565b6040516104bf919061204c565b60405180910390f35b6104e260048036038101906104dd91906123f0565b611005565b005b60007f80ac58cd000000000000000000000000000000000000000000000000000000007bffffffffffffffffffffffffffffffffffffffffffffffffffffffff1916827bffffffffffffffffffffffffffffffffffffffffffffffffffffffff191614806105af57507f5b5e139f000000000000000000000000000000000000000000000000000000007bffffffffffffffffffffffffffffffffffffffffffffffffffffffff1916827bffffffffffffffffffffffffffffffffffffffffffffffffffffffff1916145b806105bf57506105be82611089565b5b9050919050565b6060600080546105d59061268b565b80601f01602080910402602001604051908101604052809291908181526020018280546106019061268b565b801561064e5780601f106106235761010080835404028352916020019161064e565b820191906000526020600020905b81548152906001019060200180831161063157829003601f168201915b5050505050905090565b6000610663826110f3565b6004600083815260200190815260200160002060009054906101000a900473ffffffffffffffffffffffffffffffffffffffff169050919050565b60006106a9826109a0565b90508073ffffffffffffffffffffffffffffffffffffffff168373ffffffffffffffffffffffffffffffffffffffff16141561071a576040517f08c379a00000000000000000000000000000000000000000000000000000000081526004016107119061272f565b60405180910390fd5b8073ffffffffffffffffffffffffffffffffffffffff1661073961113e565b73ffffffffffffffffffffffffffffffffffffffff16148061076857506107678161076261113e565b610ee3565b5b6107a7576040517f08c379a000000000000000000000000000000000000000000000000000000000815260040161079e906127c1565b60405180910390fd5b6107b18383611146565b505050565b60075481565b80600a90805190602001906107d2929190611e41565b508160088190555060016007546107e99190612810565b6007819055506107fb336007546111ff565b33600d6000600754815260200190815260200160002060006101000a81548173ffffffffffffffffffffffffffffffffffffffff021916908373ffffffffffffffffffffffffffffffffffffffff1602179055506007547fd329d47a9928e7ffa63146b7b8947f74c1e05145d61dc61ce96e83df1339c04b8360405161088191906121a8565b60405180910390a25050565b61089e61089861113e565b8261121d565b6108dd576040517f08c379a00000000000000000000000000000000000000000000000000000000081526004016108d4906128d8565b60405180910390fd5b6108e88383836112b2565b505050565b606060006040518060400160405280601a81526020017f646174613a696d6167652f7376672b786d6c3b6261736536342c000000000000815250905060006109538460405160200161093f9190612934565b604051602081830303815290604052611519565b9050818160405160200161096892919061294b565b60405160208183030381529060405292505050919050565b61099b83838360405180602001604052806000815250610c5d565b505050565b6000806002600084815260200190815260200160002060009054906101000a900473ffffffffffffffffffffffffffffffffffffffff169050600073ffffffffffffffffffffffffffffffffffffffff168173ffffffffffffffffffffffffffffffffffffffff161415610a49576040517f08c379a0000000000000000000000000000000000000000000000000000000008152600401610a40906129bb565b60405180910390fd5b80915050919050565b6000600754905090565b60008073ffffffffffffffffffffffffffffffffffffffff168273ffffffffffffffffffffffffffffffffffffffff161415610acd576040517f08c379a0000000000000000000000000000000000000000000000000000000008152600401610ac490612a4d565b60405180910390fd5b600360008373ffffffffffffffffffffffffffffffffffffffff1673ffffffffffffffffffffffffffffffffffffffff168152602001908152602001600020549050919050565b610b1c611692565b610b266000611710565b565b80600a9080519060200190610b3e929190611e41565b508260088190555060005b82811015610b85576001600754610b609190612810565b600781905550610b72336007546111ff565b8080610b7d90612a6d565b915050610b49565b50505050565b6000600660009054906101000a900473ffffffffffffffffffffffffffffffffffffffff16905090565b606060018054610bc49061268b565b80601f0160208091040260200160405190810160405280929190818152602001828054610bf09061268b565b8015610c3d5780601f10610c1257610100808354040283529160200191610c3d565b820191906000526020600020905b815481529060010190602001808311610c2057829003601f168201915b5050505050905090565b610c59610c5261113e565b83836117d6565b5050565b610c6e610c6861113e565b8361121d565b610cad576040517f08c379a0000000000000000000000000000000000000000000000000000000008152600401610ca4906128d8565b60405180910390fd5b610cb984848484611943565b50505050565b60606000600b8054610cd09061268b565b80601f0160208091040260200160405190810160405280929190818152602001828054610cfc9061268b565b8015610d495780601f10610d1e57610100808354040283529160200191610d49565b820191906000526020600020905b815481529060010190602001808311610d2c57829003601f168201915b5050505050905060026008541415610de957600c8054610d689061268b565b80601f0160208091040260200160405190810160405280929190818152602001828054610d949061268b565b8015610de15780601f10610db657610100808354040283529160200191610de1565b820191906000526020600020905b815481529060010190602001808311610dc457829003601f168201915b505050505090505b610df161199f565b610e25610dfc6105c6565b83600a604051602001610e1193929190612d38565b604051602081830303815290604052611519565b604051602001610e3692919061294b565b604051602081830303815290604052915050919050565b600960009054906101000a900473ffffffffffffffffffffffffffffffffffffffff1681565b6000600d600083815260200190815260200160002060009054906101000a900473ffffffffffffffffffffffffffffffffffffffff169050919050565b600d6020528060005260406000206000915054906101000a900473ffffffffffffffffffffffffffffffffffffffff1681565b6000600560008473ffffffffffffffffffffffffffffffffffffffff1673ffffffffffffffffffffffffffffffffffffffff16815260200190815260200160002060008373ffffffffffffffffffffffffffffffffffffffff1673ffffffffffffffffffffffffffffffffffffffff16815260200190815260200160002060009054906101000a900460ff16905092915050565b600a8054610f849061268b565b80601f0160208091040260200160405190810160405280929190818152602001828054610fb09061268b565b8015610ffd5780601f10610fd257610100808354040283529160200191610ffd565b820191906000526020600020905b815481529060010190602001808311610fe057829003601f168201915b505050505081565b61100d611692565b600073ffffffffffffffffffffffffffffffffffffffff168173ffffffffffffffffffffffffffffffffffffffff16141561107d576040517f08c379a000000000000000000000000000000000000000000000000000000000815260040161107490612e07565b60405180910390fd5b61108681611710565b50565b60007f01ffc9a7000000000000000000000000000000000000000000000000000000007bffffffffffffffffffffffffffffffffffffffffffffffffffffffff1916827bffffffffffffffffffffffffffffffffffffffffffffffffffffffff1916149050919050565b6110fc816119dc565b61113b576040517f08c379a0000000000000000000000000000000000000000000000000000000008152600401611132906129bb565b60405180910390fd5b50565b600033905090565b816004600083815260200190815260200160002060006101000a81548173ffffffffffffffffffffffffffffffffffffffff021916908373ffffffffffffffffffffffffffffffffffffffff160217905550808273ffffffffffffffffffffffffffffffffffffffff166111b9836109a0565b73ffffffffffffffffffffffffffffffffffffffff167f8c5be1e5ebec7d5bd14f71427d1e84f3dd0314c0f7b2291e5b200ac8c7c3b92560405160405180910390a45050565b611219828260405180602001604052806000815250611a48565b5050565b600080611229836109a0565b90508073ffffffffffffffffffffffffffffffffffffffff168473ffffffffffffffffffffffffffffffffffffffff16148061126b575061126a8185610ee3565b5b806112a957508373ffffffffffffffffffffffffffffffffffffffff1661129184610658565b73ffffffffffffffffffffffffffffffffffffffff16145b91505092915050565b8273ffffffffffffffffffffffffffffffffffffffff166112d2826109a0565b73ffffffffffffffffffffffffffffffffffffffff1614611328576040517f08c379a000000000000000000000000000000000000000000000000000000000815260040161131f90612e99565b60405180910390fd5b600073ffffffffffffffffffffffffffffffffffffffff168273ffffffffffffffffffffffffffffffffffffffff161415611398576040517f08c379a000000000000000000000000000000000000000000000000000000000815260040161138f90612f2b565b60405180910390fd5b6113a3838383611aa3565b6113ae600082611146565b6001600360008573ffffffffffffffffffffffffffffffffffffffff1673ffffffffffffffffffffffffffffffffffffffff16815260200190815260200160002060008282546113fe9190612f4b565b925050819055506001600360008473ffffffffffffffffffffffffffffffffffffffff1673ffffffffffffffffffffffffffffffffffffffff16815260200190815260200160002060008282546114559190612810565b92505081905550816002600083815260200190815260200160002060006101000a81548173ffffffffffffffffffffffffffffffffffffffff021916908373ffffffffffffffffffffffffffffffffffffffff160217905550808273ffffffffffffffffffffffffffffffffffffffff168473ffffffffffffffffffffffffffffffffffffffff167fddf252ad1be2c89b69c2b068fc378daa952ba7f163c4a11628f55a4df523b3ef60405160405180910390a4611514838383611aa8565b505050565b606060008251141561153c5760405180602001604052806000815250905061168d565b600060405180606001604052806040815260200161335f604091399050600060036002855161156b9190612810565b6115759190612fae565b60046115819190612fdf565b905060006020826115929190612810565b67ffffffffffffffff8111156115ab576115aa6121cd565b5b6040519080825280601f01601f1916602001820160405280156115dd5781602001600182028036833780820191505090505b509050818152600183018586518101602084015b8183101561164c576003830192508251603f8160121c168501518253600182019150603f81600c1c168501518253600182019150603f8160061c168501518253600182019150603f81168501518253600182019150506115f1565b600389510660018114611666576002811461167657611681565b613d3d60f01b6002830352611681565b603d60f81b60018303525b50505050508093505050505b919050565b61169a61113e565b73ffffffffffffffffffffffffffffffffffffffff166116b8610b8b565b73ffffffffffffffffffffffffffffffffffffffff161461170e576040517f08c379a000000000000000000000000000000000000000000000000000000000815260040161170590613085565b60405180910390fd5b565b6000600660009054906101000a900473ffffffffffffffffffffffffffffffffffffffff16905081600660006101000a81548173ffffffffffffffffffffffffffffffffffffffff021916908373ffffffffffffffffffffffffffffffffffffffff1602179055508173ffffffffffffffffffffffffffffffffffffffff168173ffffffffffffffffffffffffffffffffffffffff167f8be0079c531659141344cd1fd0a4f28419497f9722a3daafe3b4186f6b6457e060405160405180910390a35050565b8173ffffffffffffffffffffffffffffffffffffffff168373ffffffffffffffffffffffffffffffffffffffff161415611845576040517f08c379a000000000000000000000000000000000000000000000000000000000815260040161183c906130f1565b60405180910390fd5b80600560008573ffffffffffffffffffffffffffffffffffffffff1673ffffffffffffffffffffffffffffffffffffffff16815260200190815260200160002060008473ffffffffffffffffffffffffffffffffffffffff1673ffffffffffffffffffffffffffffffffffffffff16815260200190815260200160002060006101000a81548160ff0219169083151502179055508173ffffffffffffffffffffffffffffffffffffffff168373ffffffffffffffffffffffffffffffffffffffff167f17307eab39ab6107e8899845ad3d59bd9653f200f220920489ca2b5937696c31836040516119369190611f98565b60405180910390a3505050565b61194e8484846112b2565b61195a84848484611aad565b611999576040517f08c379a000000000000000000000000000000000000000000000000000000000815260040161199090613183565b60405180910390fd5b50505050565b60606040518060400160405280601d81526020017f646174613a6170706c69636174696f6e2f6a736f6e3b6261736536342c000000815250905090565b60008073ffffffffffffffffffffffffffffffffffffffff166002600084815260200190815260200160002060009054906101000a900473ffffffffffffffffffffffffffffffffffffffff1673ffffffffffffffffffffffffffffffffffffffff1614159050919050565b611a528383611c44565b611a5f6000848484611aad565b611a9e576040517f08c379a0000000000000000000000000000000000000000000000000000000008152600401611a9590613183565b60405180910390fd5b505050565b505050565b505050565b6000611ace8473ffffffffffffffffffffffffffffffffffffffff16611e1e565b15611c37578373ffffffffffffffffffffffffffffffffffffffff1663150b7a02611af761113e565b8786866040518563ffffffff1660e01b8152600401611b1994939291906131f8565b602060405180830381600087803b158015611b3357600080fd5b505af1925050508015611b6457506040513d601f19601f82011682018060405250810190611b619190613259565b60015b611be7573d8060008114611b94576040519150601f19603f3d011682016040523d82523d6000602084013e611b99565b606091505b50600081511415611bdf576040517f08c379a0000000000000000000000000000000000000000000000000000000008152600401611bd690613183565b60405180910390fd5b805181602001fd5b63150b7a0260e01b7bffffffffffffffffffffffffffffffffffffffffffffffffffffffff1916817bffffffffffffffffffffffffffffffffffffffffffffffffffffffff191614915050611c3c565b600190505b949350505050565b600073ffffffffffffffffffffffffffffffffffffffff168273ffffffffffffffffffffffffffffffffffffffff161415611cb4576040517f08c379a0000000000000000000000000000000000000000000000000000000008152600401611cab906132d2565b60405180910390fd5b611cbd816119dc565b15611cfd576040517f08c379a0000000000000000000000000000000000000000000000000000000008152600401611cf49061333e565b60405180910390fd5b611d0960008383611aa3565b6001600360008473ffffffffffffffffffffffffffffffffffffffff1673ffffffffffffffffffffffffffffffffffffffff1681526020019081526020016000206000828254611d599190612810565b92505081905550816002600083815260200190815260200160002060006101000a81548173ffffffffffffffffffffffffffffffffffffffff021916908373ffffffffffffffffffffffffffffffffffffffff160217905550808273ffffffffffffffffffffffffffffffffffffffff16600073ffffffffffffffffffffffffffffffffffffffff167fddf252ad1be2c89b69c2b068fc378daa952ba7f163c4a11628f55a4df523b3ef60405160405180910390a4611e1a60008383611aa8565b5050565b6000808273ffffffffffffffffffffffffffffffffffffffff163b119050919050565b828054611e4d9061268b565b90600052602060002090601f016020900481019282611e6f5760008555611eb6565b82601f10611e8857805160ff1916838001178555611eb6565b82800160010185558215611eb6579182015b82811115611eb5578251825591602001919060010190611e9a565b5b509050611ec39190611ec7565b5090565b5b80821115611ee0576000816000905550600101611ec8565b5090565b6000604051905090565b600080fd5b600080fd5b60007fffffffff0000000000000000000000000000000000000000000000000000000082169050919050565b611f2d81611ef8565b8114611f3857600080fd5b50565b600081359050611f4a81611f24565b92915050565b600060208284031215611f6657611f65611eee565b5b6000611f7484828501611f3b565b91505092915050565b60008115159050919050565b611f9281611f7d565b82525050565b6000602082019050611fad6000830184611f89565b92915050565b600081519050919050565b600082825260208201905092915050565b60005b83811015611fed578082015181840152602081019050611fd2565b83811115611ffc576000848401525b50505050565b6000601f19601f8301169050919050565b600061201e82611fb3565b6120288185611fbe565b9350612038818560208601611fcf565b61204181612002565b840191505092915050565b600060208201905081810360008301526120668184612013565b905092915050565b6000819050919050565b6120818161206e565b811461208c57600080fd5b50565b60008135905061209e81612078565b92915050565b6000602082840312156120ba576120b9611eee565b5b60006120c88482850161208f565b91505092915050565b600073ffffffffffffffffffffffffffffffffffffffff82169050919050565b60006120fc826120d1565b9050919050565b61210c816120f1565b82525050565b60006020820190506121276000830184612103565b92915050565b612136816120f1565b811461214157600080fd5b50565b6000813590506121538161212d565b92915050565b600080604083850312156121705761216f611eee565b5b600061217e85828601612144565b925050602061218f8582860161208f565b9150509250929050565b6121a28161206e565b82525050565b60006020820190506121bd6000830184612199565b92915050565b600080fd5b600080fd5b7f4e487b7100000000000000000000000000000000000000000000000000000000600052604160045260246000fd5b61220582612002565b810181811067ffffffffffffffff82111715612224576122236121cd565b5b80604052505050565b6000612237611ee4565b905061224382826121fc565b919050565b600067ffffffffffffffff821115612263576122626121cd565b5b61226c82612002565b9050602081019050919050565b82818337600083830152505050565b600061229b61229684612248565b61222d565b9050828152602081018484840111156122b7576122b66121c8565b5b6122c2848285612279565b509392505050565b600082601f8301126122df576122de6121c3565b5b81356122ef848260208601612288565b91505092915050565b6000806040838503121561230f5761230e611eee565b5b600061231d8582860161208f565b925050602083013567ffffffffffffffff81111561233e5761233d611ef3565b5b61234a858286016122ca565b9150509250929050565b60008060006060848603121561236d5761236c611eee565b5b600061237b86828701612144565b935050602061238c86828701612144565b925050604061239d8682870161208f565b9150509250925092565b6000602082840312156123bd576123bc611eee565b5b600082013567ffffffffffffffff8111156123db576123da611ef3565b5b6123e7848285016122ca565b91505092915050565b60006020828403121561240657612405611eee565b5b600061241484828501612144565b91505092915050565b60008060006060848603121561243657612435611eee565b5b60006124448682870161208f565b93505060206124558682870161208f565b925050604084013567ffffffffffffffff81111561247657612475611ef3565b5b612482868287016122ca565b9150509250925092565b61249581611f7d565b81146124a057600080fd5b50565b6000813590506124b28161248c565b92915050565b600080604083850312156124cf576124ce611eee565b5b60006124dd85828601612144565b92505060206124ee858286016124a3565b9150509250929050565b600067ffffffffffffffff821115612513576125126121cd565b5b61251c82612002565b9050602081019050919050565b600061253c612537846124f8565b61222d565b905082815260208101848484011115612558576125576121c8565b5b612563848285612279565b509392505050565b600082601f8301126125805761257f6121c3565b5b8135612590848260208601612529565b91505092915050565b600080600080608085870312156125b3576125b2611eee565b5b60006125c187828801612144565b94505060206125d287828801612144565b93505060406125e38782880161208f565b925050606085013567ffffffffffffffff81111561260457612603611ef3565b5b6126108782880161256b565b91505092959194509250565b6000806040838503121561263357612632611eee565b5b600061264185828601612144565b925050602061265285828601612144565b9150509250929050565b7f4e487b7100000000000000000000000000000000000000000000000000000000600052602260045260246000fd5b600060028204905060018216806126a357607f821691505b602082108114156126b7576126b661265c565b5b50919050565b7f4552433732313a20617070726f76616c20746f2063757272656e74206f776e6560008201527f7200000000000000000000000000000000000000000000000000000000000000602082015250565b6000612719602183611fbe565b9150612724826126bd565b604082019050919050565b600060208201905081810360008301526127488161270c565b9050919050565b7f4552433732313a20617070726f76652063616c6c6572206973206e6f7420746f60008201527f6b656e206f776e6572206e6f7220617070726f76656420666f7220616c6c0000602082015250565b60006127ab603e83611fbe565b91506127b68261274f565b604082019050919050565b600060208201905081810360008301526127da8161279e565b9050919050565b7f4e487b7100000000000000000000000000000000000000000000000000000000600052601160045260246000fd5b600061281b8261206e565b91506128268361206e565b9250827fffffffffffffffffffffffffffffffffffffffffffffffffffffffffffffffff0382111561285b5761285a6127e1565b5b828201905092915050565b7f4552433732313a2063616c6c6572206973206e6f7420746f6b656e206f776e6560008201527f72206e6f7220617070726f766564000000000000000000000000000000000000602082015250565b60006128c2602e83611fbe565b91506128cd82612866565b604082019050919050565b600060208201905081810360008301526128f1816128b5565b9050919050565b600081905092915050565b600061290e82611fb3565b61291881856128f8565b9350612928818560208601611fcf565b80840191505092915050565b60006129408284612903565b915081905092915050565b60006129578285612903565b91506129638284612903565b91508190509392505050565b7f4552433732313a20696e76616c696420746f6b656e2049440000000000000000600082015250565b60006129a5601883611fbe565b91506129b08261296f565b602082019050919050565b600060208201905081810360008301526129d481612998565b9050919050565b7f4552433732313a2061646472657373207a65726f206973206e6f74206120766160008201527f6c6964206f776e65720000000000000000000000000000000000000000000000602082015250565b6000612a37602983611fbe565b9150612a42826129db565b604082019050919050565b60006020820190508181036000830152612a6681612a2a565b9050919050565b6000612a788261206e565b91507fffffffffffffffffffffffffffffffffffffffffffffffffffffffffffffffff821415612aab57612aaa6127e1565b5b600182019050919050565b7f7b226e616d65223a220000000000000000000000000000000000000000000000600082015250565b6000612aec6009836128f8565b9150612af782612ab6565b600982019050919050565b7f222c226465736372697074696f6e223a224e465420446566696e657320796f7560008201527f7220506c756767204d656d62657273686970222c22696d616765223a22000000602082015250565b6000612b5e603d836128f8565b9150612b6982612b02565b603d82019050919050565b7f222c202261747472696275746573223a5b7b2274726169745f74797065223a2260008201527f456d61696c222c2276616c7565223a2022000000000000000000000000000000602082015250565b6000612bd06031836128f8565b9150612bdb82612b74565b603182019050919050565b60008190508160005260206000209050919050565b60008154612c088161268b565b612c1281866128f8565b94506001821660008114612c2d5760018114612c3e57612c71565b60ff19831686528186019350612c71565b612c4785612be6565b60005b83811015612c6957815481890152600182019150602081019050612c4a565b838801955050505b50505092915050565b7f227d2c7b202274726169745f74797065223a22436861696e222c2276616c756560008201527f223a22506f6c79676f6e227d2c7b2274726169745f74797065223a224e46545f60208201527f50726f7669646572222c2276616c7565223a22706c7567672e6e6574776f726b60408201527f227d5d7d00000000000000000000000000000000000000000000000000000000606082015250565b6000612d226064836128f8565b9150612d2d82612c7a565b606482019050919050565b6000612d4382612adf565b9150612d4f8286612903565b9150612d5a82612b51565b9150612d668285612903565b9150612d7182612bc3565b9150612d7d8284612bfb565b9150612d8882612d15565b9150819050949350505050565b7f4f776e61626c653a206e6577206f776e657220697320746865207a65726f206160008201527f6464726573730000000000000000000000000000000000000000000000000000602082015250565b6000612df1602683611fbe565b9150612dfc82612d95565b604082019050919050565b60006020820190508181036000830152612e2081612de4565b9050919050565b7f4552433732313a207472616e736665722066726f6d20696e636f72726563742060008201527f6f776e6572000000000000000000000000000000000000000000000000000000602082015250565b6000612e83602583611fbe565b9150612e8e82612e27565b604082019050919050565b60006020820190508181036000830152612eb281612e76565b9050919050565b7f4552433732313a207472616e7366657220746f20746865207a65726f2061646460008201527f7265737300000000000000000000000000000000000000000000000000000000602082015250565b6000612f15602483611fbe565b9150612f2082612eb9565b604082019050919050565b60006020820190508181036000830152612f4481612f08565b9050919050565b6000612f568261206e565b9150612f618361206e565b925082821015612f7457612f736127e1565b5b828203905092915050565b7f4e487b7100000000000000000000000000000000000000000000000000000000600052601260045260246000fd5b6000612fb98261206e565b9150612fc48361206e565b925082612fd457612fd3612f7f565b5b828204905092915050565b6000612fea8261206e565b9150612ff58361206e565b9250817fffffffffffffffffffffffffffffffffffffffffffffffffffffffffffffffff048311821515161561302e5761302d6127e1565b5b828202905092915050565b7f4f776e61626c653a2063616c6c6572206973206e6f7420746865206f776e6572600082015250565b600061306f602083611fbe565b915061307a82613039565b602082019050919050565b6000602082019050818103600083015261309e81613062565b9050919050565b7f4552433732313a20617070726f766520746f2063616c6c657200000000000000600082015250565b60006130db601983611fbe565b91506130e6826130a5565b602082019050919050565b6000602082019050818103600083015261310a816130ce565b9050919050565b7f4552433732313a207472616e7366657220746f206e6f6e20455243373231526560008201527f63656976657220696d706c656d656e7465720000000000000000000000000000602082015250565b600061316d603283611fbe565b915061317882613111565b604082019050919050565b6000602082019050818103600083015261319c81613160565b9050919050565b600081519050919050565b600082825260208201905092915050565b60006131ca826131a3565b6131d481856131ae565b93506131e4818560208601611fcf565b6131ed81612002565b840191505092915050565b600060808201905061320d6000830187612103565b61321a6020830186612103565b6132276040830185612199565b818103606083015261323981846131bf565b905095945050505050565b60008151905061325381611f24565b92915050565b60006020828403121561326f5761326e611eee565b5b600061327d84828501613244565b91505092915050565b7f4552433732313a206d696e7420746f20746865207a65726f2061646472657373600082015250565b60006132bc602083611fbe565b91506132c782613286565b602082019050919050565b600060208201905081810360008301526132eb816132af565b9050919050565b7f4552433732313a20746f6b656e20616c7265616479206d696e74656400000000600082015250565b6000613328601c83611fbe565b9150613333826132f2565b602082019050919050565b600060208201905081810360008301526133578161331b565b905091905056fe4142434445464748494a4b4c4d4e4f505152535455565758595a6162636465666768696a6b6c6d6e6f707172737475767778797a303132333435363738392b2fa2646970667358221220eedaa6adb924cd84694cafd43af3f0bb1510a7dff700cf6cf86c026f35b39a4564736f6c63430008080033697066733a2f2f516d63384565437a4a705576705643656565716a6945467558686a45696f6e35646d4e33515a554b6d6f75796334697066733a2f2f516d526657506d4636694e724c54756878486733707063725259313235425a6f50664674714d4d56436f52536639",
  "linkReferences": {},
  "deployedLinkReferences": {}
}