{
  "_format": "hh-sol-artifact-1",
  "contractName": "PluggNFT",
  "sourceName": "contracts/PluggNFT.sol",
  "abi": [
    {
      "inputs": [],
      "stateMutability": "nonpayable",
      "type": "constructor"
    },
    {
      "anonymous": false,
      "inputs": [
        {
          "indexed": true,
          "internalType": "address",
          "name": "owner",
          "type": "address"
        },
        {
          "indexed": true,
          "internalType": "address",
          "name": "approved",
          "type": "address"
        },
        {
          "indexed": true,
          "internalType": "uint256",
          "name": "tokenId",
          "type": "uint256"
        }
      ],
      "name": "Approval",
      "type": "event"
    },
    {
      "anonymous": false,
      "inputs": [
        {
          "indexed": true,
          "internalType": "address",
          "name": "owner",
          "type": "address"
        },
        {
          "indexed": true,
          "internalType": "address",
          "name": "operator",
          "type": "address"
        },
        {
          "indexed": false,
          "internalType": "bool",
          "name": "approved",
          "type": "bool"
        }
      ],
      "name": "ApprovalForAll",
      "type": "event"
    },
    {
      "anonymous": false,
      "inputs": [
        {
          "indexed": true,
          "internalType": "uint256",
          "name": "tokenId",
          "type": "uint256"
        },
        {
          "indexed": false,
          "internalType": "uint256",
          "name": "inputNFT_num",
          "type": "uint256"
        }
      ],
      "name": "CreatedNFT",
      "type": "event"
    },
    {
      "anonymous": false,
      "inputs": [
        {
          "indexed": true,
          "internalType": "address",
          "name": "previousOwner",
          "type": "address"
        },
        {
          "indexed": true,
          "internalType": "address",
          "name": "newOwner",
          "type": "address"
        }
      ],
      "name": "OwnershipTransferred",
      "type": "event"
    },
    {
      "anonymous": false,
      "inputs": [
        {
          "indexed": true,
          "internalType": "address",
          "name": "from",
          "type": "address"
        },
        {
          "indexed": true,
          "internalType": "address",
          "name": "to",
          "type": "address"
        },
        {
          "indexed": true,
          "internalType": "uint256",
          "name": "tokenId",
          "type": "uint256"
        }
      ],
      "name": "Transfer",
      "type": "event"
    },
    {
      "inputs": [
        {
          "internalType": "address[]",
          "name": "recipient",
          "type": "address[]"
        },
        {
          "internalType": "string[]",
          "name": "nftEmail",
          "type": "string[]"
        },
        {
          "internalType": "uint256",
          "name": "NFT_num",
          "type": "uint256"
        }
      ],
      "name": "BatchMint_MultiAdd",
      "outputs": [],
      "stateMutability": "nonpayable",
      "type": "function"
    },
    {
      "inputs": [
        {
          "internalType": "address",
          "name": "recipient",
          "type": "address"
        },
        {
          "internalType": "string[]",
          "name": "nftEmail",
          "type": "string[]"
        },
        {
          "internalType": "uint256",
          "name": "NFT_num",
          "type": "uint256"
        }
      ],
      "name": "BatchMint_SingleAdd",
      "outputs": [],
      "stateMutability": "nonpayable",
      "type": "function"
    },
    {
      "inputs": [
        {
          "internalType": "string",
          "name": "nftEmail",
          "type": "string"
        },
        {
          "internalType": "uint256",
          "name": "NFT_num",
          "type": "uint256"
        }
      ],
      "name": "NFT_URI",
      "outputs": [
        {
          "internalType": "string",
          "name": "",
          "type": "string"
        }
      ],
      "stateMutability": "view",
      "type": "function"
    },
    {
      "inputs": [
        {
          "internalType": "address",
          "name": "to",
          "type": "address"
        },
        {
          "internalType": "uint256",
          "name": "tokenId",
          "type": "uint256"
        }
      ],
      "name": "approve",
      "outputs": [],
      "stateMutability": "nonpayable",
      "type": "function"
    },
    {
      "inputs": [
        {
          "internalType": "address",
          "name": "owner",
          "type": "address"
        }
      ],
      "name": "balanceOf",
      "outputs": [
        {
          "internalType": "uint256",
          "name": "",
          "type": "uint256"
        }
      ],
      "stateMutability": "view",
      "type": "function"
    },
    {
      "inputs": [],
      "name": "contractOwner",
      "outputs": [
        {
          "internalType": "address",
          "name": "",
          "type": "address"
        }
      ],
      "stateMutability": "view",
      "type": "function"
    },
    {
      "inputs": [
        {
          "internalType": "uint256",
          "name": "tokenId",
          "type": "uint256"
        }
      ],
      "name": "getApproved",
      "outputs": [
        {
          "internalType": "address",
          "name": "",
          "type": "address"
        }
      ],
      "stateMutability": "view",
      "type": "function"
    },
    {
      "inputs": [
        {
          "internalType": "uint256",
          "name": "nftNumber",
          "type": "uint256"
        }
      ],
      "name": "getOwnerAddress",
      "outputs": [
        {
          "internalType": "address",
          "name": "",
          "type": "address"
        }
      ],
      "stateMutability": "view",
      "type": "function"
    },
    {
      "inputs": [
        {
          "internalType": "uint256",
          "name": "nftNumber",
          "type": "uint256"
        }
      ],
      "name": "getOwnerEmail",
      "outputs": [
        {
          "internalType": "string",
          "name": "",
          "type": "string"
        }
      ],
      "stateMutability": "view",
      "type": "function"
    },
    {
      "inputs": [],
      "name": "getTokenCounter",
      "outputs": [
        {
          "internalType": "uint256",
          "name": "",
          "type": "uint256"
        }
      ],
      "stateMutability": "view",
      "type": "function"
    },
    {
      "inputs": [
        {
          "internalType": "address",
          "name": "owner",
          "type": "address"
        },
        {
          "internalType": "address",
          "name": "operator",
          "type": "address"
        }
      ],
      "name": "isApprovedForAll",
      "outputs": [
        {
          "internalType": "bool",
          "name": "",
          "type": "bool"
        }
      ],
      "stateMutability": "view",
      "type": "function"
    },
    {
      "inputs": [],
      "name": "name",
      "outputs": [
        {
          "internalType": "string",
          "name": "",
          "type": "string"
        }
      ],
      "stateMutability": "view",
      "type": "function"
    },
    {
      "inputs": [
        {
          "internalType": "uint256",
          "name": "",
          "type": "uint256"
        }
      ],
      "name": "nftMinters",
      "outputs": [
        {
          "internalType": "address",
          "name": "",
          "type": "address"
        }
      ],
      "stateMutability": "view",
      "type": "function"
    },
    {
      "inputs": [
        {
          "internalType": "uint256",
          "name": "",
          "type": "uint256"
        }
      ],
      "name": "nftMinters_Email",
      "outputs": [
        {
          "internalType": "string",
          "name": "",
          "type": "string"
        }
      ],
      "stateMutability": "view",
      "type": "function"
    },
    {
      "inputs": [],
      "name": "owner",
      "outputs": [
        {
          "internalType": "address",
          "name": "",
          "type": "address"
        }
      ],
      "stateMutability": "view",
      "type": "function"
    },
    {
      "inputs": [
        {
          "internalType": "uint256",
          "name": "tokenId",
          "type": "uint256"
        }
      ],
      "name": "ownerOf",
      "outputs": [
        {
          "internalType": "address",
          "name": "",
          "type": "address"
        }
      ],
      "stateMutability": "view",
      "type": "function"
    },
    {
      "inputs": [],
      "name": "renounceOwnership",
      "outputs": [],
      "stateMutability": "nonpayable",
      "type": "function"
    },
    {
      "inputs": [],
      "name": "s_tokenCounter",
      "outputs": [
        {
          "internalType": "uint256",
          "name": "",
          "type": "uint256"
        }
      ],
      "stateMutability": "view",
      "type": "function"
    },
    {
      "inputs": [
        {
          "internalType": "address",
          "name": "to",
          "type": "address"
        },
        {
          "internalType": "string",
          "name": "nftEmail",
          "type": "string"
        },
        {
          "internalType": "uint256",
          "name": "NFT_num",
          "type": "uint256"
        }
      ],
      "name": "safeMint",
      "outputs": [],
      "stateMutability": "nonpayable",
      "type": "function"
    },
    {
      "inputs": [
        {
          "internalType": "address",
          "name": "from",
          "type": "address"
        },
        {
          "internalType": "address",
          "name": "to",
          "type": "address"
        },
        {
          "internalType": "uint256",
          "name": "tokenId",
          "type": "uint256"
        }
      ],
      "name": "safeTransferFrom",
      "outputs": [],
      "stateMutability": "nonpayable",
      "type": "function"
    },
    {
      "inputs": [
        {
          "internalType": "address",
          "name": "from",
          "type": "address"
        },
        {
          "internalType": "address",
          "name": "to",
          "type": "address"
        },
        {
          "internalType": "uint256",
          "name": "tokenId",
          "type": "uint256"
        },
        {
          "internalType": "bytes",
          "name": "data",
          "type": "bytes"
        }
      ],
      "name": "safeTransferFrom",
      "outputs": [],
      "stateMutability": "nonpayable",
      "type": "function"
    },
    {
      "inputs": [
        {
          "internalType": "address",
          "name": "operator",
          "type": "address"
        },
        {
          "internalType": "bool",
          "name": "approved",
          "type": "bool"
        }
      ],
      "name": "setApprovalForAll",
      "outputs": [],
      "stateMutability": "nonpayable",
      "type": "function"
    },
    {
      "inputs": [
        {
          "internalType": "bytes4",
          "name": "interfaceId",
          "type": "bytes4"
        }
      ],
      "name": "supportsInterface",
      "outputs": [
        {
          "internalType": "bool",
          "name": "",
          "type": "bool"
        }
      ],
      "stateMutability": "view",
      "type": "function"
    },
    {
      "inputs": [],
      "name": "symbol",
      "outputs": [
        {
          "internalType": "string",
          "name": "",
          "type": "string"
        }
      ],
      "stateMutability": "view",
      "type": "function"
    },
    {
      "inputs": [
        {
          "internalType": "uint256",
          "name": "tokenId",
          "type": "uint256"
        }
      ],
      "name": "tokenURI",
      "outputs": [
        {
          "internalType": "string",
          "name": "",
          "type": "string"
        }
      ],
      "stateMutability": "view",
      "type": "function"
    },
    {
      "inputs": [
        {
          "internalType": "address",
          "name": "from",
          "type": "address"
        },
        {
          "internalType": "address",
          "name": "to",
          "type": "address"
        },
        {
          "internalType": "uint256",
          "name": "tokenId",
          "type": "uint256"
        }
      ],
      "name": "transferFrom",
      "outputs": [],
      "stateMutability": "nonpayable",
      "type": "function"
    },
    {
      "inputs": [
        {
          "internalType": "address",
          "name": "newOwner",
          "type": "address"
        }
      ],
      "name": "transferOwnership",
      "outputs": [],
      "stateMutability": "nonpayable",
      "type": "function"
    }
  ],
  "bytecode": "0x608060405260405180606001604052806035815260200162003ff960359139600a90805190602001906200003592919062000253565b506040518060600160405280603581526020016200402e60359139600b90805190602001906200006792919062000253565b503480156200007557600080fd5b506040518060400160405280600d81526020017f506c7567672e4e6574776f726b000000000000000000000000000000000000008152506040518060400160405280600581526020017f504c5547470000000000000000000000000000000000000000000000000000008152508160009080519060200190620000fa92919062000253565b5080600190805190602001906200011392919062000253565b505050620001366200012a6200018560201b60201c565b6200018d60201b60201c565b33600960006101000a81548173ffffffffffffffffffffffffffffffffffffffff021916908373ffffffffffffffffffffffffffffffffffffffff160217905550600060088190555062000368565b600033905090565b6000600760009054906101000a900473ffffffffffffffffffffffffffffffffffffffff16905081600760006101000a81548173ffffffffffffffffffffffffffffffffffffffff021916908373ffffffffffffffffffffffffffffffffffffffff1602179055508173ffffffffffffffffffffffffffffffffffffffff168173ffffffffffffffffffffffffffffffffffffffff167f8be0079c531659141344cd1fd0a4f28419497f9722a3daafe3b4186f6b6457e060405160405180910390a35050565b828054620002619062000332565b90600052602060002090601f016020900481019282620002855760008555620002d1565b82601f10620002a057805160ff1916838001178555620002d1565b82800160010185558215620002d1579182015b82811115620002d0578251825591602001919060010190620002b3565b5b509050620002e09190620002e4565b5090565b5b80821115620002ff576000816000905550600101620002e5565b5090565b7f4e487b7100000000000000000000000000000000000000000000000000000000600052602260045260246000fd5b600060028204905060018216806200034b57607f821691505b6020821081141562000362576200036162000303565b5b50919050565b613c8180620003786000396000f3fe608060405234801561001057600080fd5b50600436106101a95760003560e01c806375950adb116100f9578063ce606ee011610097578063df99c62511610071578063df99c625146104e0578063e82435e0146104fc578063e985e9c51461052c578063f2fde38b1461055c576101a9565b8063ce606ee014610462578063d861f58914610480578063dd550958146104b0576101a9565b8063a22cb465116100d3578063a22cb465146103de578063b88d4fde146103fa578063c772745a14610416578063c87b56dd14610432576101a9565b806375950adb146103725780638da5cb5b146103a257806395d89b41146103c0576101a9565b806329ac677f116101665780636352211e116101405780636352211e146102ea5780636e02007d1461031a57806370a0823114610338578063715018a614610368576101a9565b806329ac677f1461028257806342842e0e1461029e57806359c7ea41146102ba576101a9565b806301ffc9a7146101ae57806306fdde03146101de578063081812fc146101fc578063095ea7b31461022c5780630b21a83b1461024857806323b872dd14610266575b600080fd5b6101c860048036038101906101c391906124a6565b610578565b6040516101d591906124ee565b60405180910390f35b6101e661065a565b6040516101f391906125a2565b60405180910390f35b610216600480360381019061021191906125fa565b6106ec565b6040516102239190612668565b60405180910390f35b610246600480360381019061024191906126af565b610732565b005b61025061084a565b60405161025d91906126fe565b60405180910390f35b610280600480360381019061027b9190612719565b610850565b005b61029c60048036038101906102979190612987565b6108b0565b005b6102b860048036038101906102b39190612719565b610900565b005b6102d460048036038101906102cf91906125fa565b610920565b6040516102e191906125a2565b60405180910390f35b61030460048036038101906102ff91906125fa565b610a0a565b6040516103119190612668565b60405180910390f35b610322610abc565b60405161032f91906126fe565b60405180910390f35b610352600480360381019061034d91906129f6565b610ac6565b60405161035f91906126fe565b60405180910390f35b610370610b7e565b005b61038c600480360381019061038791906125fa565b610b92565b60405161039991906125a2565b60405180910390f35b6103aa610c32565b6040516103b79190612668565b60405180910390f35b6103c8610c5c565b6040516103d591906125a2565b60405180910390f35b6103f860048036038101906103f39190612a4f565b610cee565b005b610414600480360381019061040f9190612b30565b610d04565b005b610430600480360381019061042b9190612bb3565b610d66565b005b61044c600480360381019061044791906125fa565b610e28565b60405161045991906125a2565b60405180910390f35b61046a610e3a565b6040516104779190612668565b60405180910390f35b61049a60048036038101906104959190612c22565b610e60565b6040516104a791906125a2565b60405180910390f35b6104ca60048036038101906104c591906125fa565b611058565b6040516104d79190612668565b60405180910390f35b6104fa60048036038101906104f59190612d41565b6110da565b005b610516600480360381019061051191906125fa565b611144565b6040516105239190612668565b60405180910390f35b61054660048036038101906105419190612dcc565b611177565b60405161055391906124ee565b60405180910390f35b610576600480360381019061057191906129f6565b61120b565b005b60007f80ac58cd000000000000000000000000000000000000000000000000000000007bffffffffffffffffffffffffffffffffffffffffffffffffffffffff1916827bffffffffffffffffffffffffffffffffffffffffffffffffffffffff1916148061064357507f5b5e139f000000000000000000000000000000000000000000000000000000007bffffffffffffffffffffffffffffffffffffffffffffffffffffffff1916827bffffffffffffffffffffffffffffffffffffffffffffffffffffffff1916145b8061065357506106528261128f565b5b9050919050565b60606000805461066990612e3b565b80601f016020809104026020016040519081016040528092919081815260200182805461069590612e3b565b80156106e25780601f106106b7576101008083540402835291602001916106e2565b820191906000526020600020905b8154815290600101906020018083116106c557829003601f168201915b5050505050905090565b60006106f7826112f9565b6004600083815260200190815260200160002060009054906101000a900473ffffffffffffffffffffffffffffffffffffffff169050919050565b600061073d82610a0a565b90508073ffffffffffffffffffffffffffffffffffffffff168373ffffffffffffffffffffffffffffffffffffffff1614156107ae576040517f08c379a00000000000000000000000000000000000000000000000000000000081526004016107a590612edf565b60405180910390fd5b8073ffffffffffffffffffffffffffffffffffffffff166107cd611344565b73ffffffffffffffffffffffffffffffffffffffff1614806107fc57506107fb816107f6611344565b611177565b5b61083b576040517f08c379a000000000000000000000000000000000000000000000000000000000815260040161083290612f71565b60405180910390fd5b610845838361134c565b505050565b60085481565b61086161085b611344565b82611405565b6108a0576040517f08c379a000000000000000000000000000000000000000000000000000000000815260040161089790613003565b60405180910390fd5b6108ab83838361149a565b505050565b60008251905060005b818110156108f9576108e6858583815181106108d8576108d7613023565b5b602002602001015185610d66565b80806108f190613081565b9150506108b9565b5050505050565b61091b83838360405180602001604052806000815250610d04565b505050565b6060600854821115610967576040517f08c379a000000000000000000000000000000000000000000000000000000000815260040161095e9061313c565b60405180910390fd5b600d6000838152602001908152602001600020805461098590612e3b565b80601f01602080910402602001604051908101604052809291908181526020018280546109b190612e3b565b80156109fe5780601f106109d3576101008083540402835291602001916109fe565b820191906000526020600020905b8154815290600101906020018083116109e157829003601f168201915b50505050509050919050565b6000806002600084815260200190815260200160002060009054906101000a900473ffffffffffffffffffffffffffffffffffffffff169050600073ffffffffffffffffffffffffffffffffffffffff168173ffffffffffffffffffffffffffffffffffffffff161415610ab3576040517f08c379a0000000000000000000000000000000000000000000000000000000008152600401610aaa906131a8565b60405180910390fd5b80915050919050565b6000600854905090565b60008073ffffffffffffffffffffffffffffffffffffffff168273ffffffffffffffffffffffffffffffffffffffff161415610b37576040517f08c379a0000000000000000000000000000000000000000000000000000000008152600401610b2e9061323a565b60405180910390fd5b600360008373ffffffffffffffffffffffffffffffffffffffff1673ffffffffffffffffffffffffffffffffffffffff168152602001908152602001600020549050919050565b610b86611701565b610b90600061177f565b565b600d6020528060005260406000206000915090508054610bb190612e3b565b80601f0160208091040260200160405190810160405280929190818152602001828054610bdd90612e3b565b8015610c2a5780601f10610bff57610100808354040283529160200191610c2a565b820191906000526020600020905b815481529060010190602001808311610c0d57829003601f168201915b505050505081565b6000600760009054906101000a900473ffffffffffffffffffffffffffffffffffffffff16905090565b606060018054610c6b90612e3b565b80601f0160208091040260200160405190810160405280929190818152602001828054610c9790612e3b565b8015610ce45780601f10610cb957610100808354040283529160200191610ce4565b820191906000526020600020905b815481529060010190602001808311610cc757829003601f168201915b5050505050905090565b610d00610cf9611344565b8383611845565b5050565b610d15610d0f611344565b83611405565b610d54576040517f08c379a0000000000000000000000000000000000000000000000000000000008152600401610d4b90613003565b60405180910390fd5b610d60848484846119b2565b50505050565b6000610d728383610e60565b905060086000815480929190610d8790613081565b9190505550610d9884600854611a0e565b610da460085482611a2c565b83600c6000600854815260200190815260200160002060006101000a81548173ffffffffffffffffffffffffffffffffffffffff021916908373ffffffffffffffffffffffffffffffffffffffff16021790555082600d600060085481526020019081526020016000209080519060200190610e21929190612397565b5050505050565b6060610e3382611aa0565b9050919050565b600960009054906101000a900473ffffffffffffffffffffffffffffffffffffffff1681565b60606000600a8054610e7190612e3b565b80601f0160208091040260200160405190810160405280929190818152602001828054610e9d90612e3b565b8015610eea5780601f10610ebf57610100808354040283529160200191610eea565b820191906000526020600020905b815481529060010190602001808311610ecd57829003601f168201915b5050505050905060006040518060400160405280600981526020017f20474f4c44204e4654000000000000000000000000000000000000000000000081525090506002841415610ffa57600b8054610f4190612e3b565b80601f0160208091040260200160405190810160405280929190818152602001828054610f6d90612e3b565b8015610fba5780601f10610f8f57610100808354040283529160200191610fba565b820191906000526020600020905b815481529060010190602001808311610f9d57829003601f168201915b505050505091506040518060400160405280600b81526020017f2053494c564552204e465400000000000000000000000000000000000000000081525090505b61102f61100561065a565b82848860405160200161101b9493929190613484565b604051602081830303815290604052611bb3565b60405160200161103f91906134ee565b6040516020818303038152906040529250505092915050565b600060085482111561109f576040517f08c379a00000000000000000000000000000000000000000000000000000000081526004016110969061313c565b60405180910390fd5b600c600083815260200190815260200160002060009054906101000a900473ffffffffffffffffffffffffffffffffffffffff169050919050565b60008251905060005b8181101561113d5761112a85828151811061110157611100613023565b5b602002602001015185838151811061111c5761111b613023565b5b602002602001015185610d66565b808061113590613081565b9150506110e3565b5050505050565b600c6020528060005260406000206000915054906101000a900473ffffffffffffffffffffffffffffffffffffffff1681565b6000600560008473ffffffffffffffffffffffffffffffffffffffff1673ffffffffffffffffffffffffffffffffffffffff16815260200190815260200160002060008373ffffffffffffffffffffffffffffffffffffffff1673ffffffffffffffffffffffffffffffffffffffff16815260200190815260200160002060009054906101000a900460ff16905092915050565b611213611701565b600073ffffffffffffffffffffffffffffffffffffffff168173ffffffffffffffffffffffffffffffffffffffff161415611283576040517f08c379a000000000000000000000000000000000000000000000000000000000815260040161127a90613577565b60405180910390fd5b61128c8161177f565b50565b60007f01ffc9a7000000000000000000000000000000000000000000000000000000007bffffffffffffffffffffffffffffffffffffffffffffffffffffffff1916827bffffffffffffffffffffffffffffffffffffffffffffffffffffffff1916149050919050565b61130281611d2c565b611341576040517f08c379a0000000000000000000000000000000000000000000000000000000008152600401611338906131a8565b60405180910390fd5b50565b600033905090565b816004600083815260200190815260200160002060006101000a81548173ffffffffffffffffffffffffffffffffffffffff021916908373ffffffffffffffffffffffffffffffffffffffff160217905550808273ffffffffffffffffffffffffffffffffffffffff166113bf83610a0a565b73ffffffffffffffffffffffffffffffffffffffff167f8c5be1e5ebec7d5bd14f71427d1e84f3dd0314c0f7b2291e5b200ac8c7c3b92560405160405180910390a45050565b60008061141183610a0a565b90508073ffffffffffffffffffffffffffffffffffffffff168473ffffffffffffffffffffffffffffffffffffffff16148061145357506114528185611177565b5b8061149157508373ffffffffffffffffffffffffffffffffffffffff16611479846106ec565b73ffffffffffffffffffffffffffffffffffffffff16145b91505092915050565b8273ffffffffffffffffffffffffffffffffffffffff166114ba82610a0a565b73ffffffffffffffffffffffffffffffffffffffff1614611510576040517f08c379a000000000000000000000000000000000000000000000000000000000815260040161150790613609565b60405180910390fd5b600073ffffffffffffffffffffffffffffffffffffffff168273ffffffffffffffffffffffffffffffffffffffff161415611580576040517f08c379a00000000000000000000000000000000000000000000000000000000081526004016115779061369b565b60405180910390fd5b61158b838383611d98565b61159660008261134c565b6001600360008573ffffffffffffffffffffffffffffffffffffffff1673ffffffffffffffffffffffffffffffffffffffff16815260200190815260200160002060008282546115e691906136bb565b925050819055506001600360008473ffffffffffffffffffffffffffffffffffffffff1673ffffffffffffffffffffffffffffffffffffffff168152602001908152602001600020600082825461163d91906136ef565b92505081905550816002600083815260200190815260200160002060006101000a81548173ffffffffffffffffffffffffffffffffffffffff021916908373ffffffffffffffffffffffffffffffffffffffff160217905550808273ffffffffffffffffffffffffffffffffffffffff168473ffffffffffffffffffffffffffffffffffffffff167fddf252ad1be2c89b69c2b068fc378daa952ba7f163c4a11628f55a4df523b3ef60405160405180910390a46116fc838383611d9d565b505050565b611709611344565b73ffffffffffffffffffffffffffffffffffffffff16611727610c32565b73ffffffffffffffffffffffffffffffffffffffff161461177d576040517f08c379a000000000000000000000000000000000000000000000000000000000815260040161177490613791565b60405180910390fd5b565b6000600760009054906101000a900473ffffffffffffffffffffffffffffffffffffffff16905081600760006101000a81548173ffffffffffffffffffffffffffffffffffffffff021916908373ffffffffffffffffffffffffffffffffffffffff1602179055508173ffffffffffffffffffffffffffffffffffffffff168173ffffffffffffffffffffffffffffffffffffffff167f8be0079c531659141344cd1fd0a4f28419497f9722a3daafe3b4186f6b6457e060405160405180910390a35050565b8173ffffffffffffffffffffffffffffffffffffffff168373ffffffffffffffffffffffffffffffffffffffff1614156118b4576040517f08c379a00000000000000000000000000000000000000000000000000000000081526004016118ab906137fd565b60405180910390fd5b80600560008573ffffffffffffffffffffffffffffffffffffffff1673ffffffffffffffffffffffffffffffffffffffff16815260200190815260200160002060008473ffffffffffffffffffffffffffffffffffffffff1673ffffffffffffffffffffffffffffffffffffffff16815260200190815260200160002060006101000a81548160ff0219169083151502179055508173ffffffffffffffffffffffffffffffffffffffff168373ffffffffffffffffffffffffffffffffffffffff167f17307eab39ab6107e8899845ad3d59bd9653f200f220920489ca2b5937696c31836040516119a591906124ee565b60405180910390a3505050565b6119bd84848461149a565b6119c984848484611da2565b611a08576040517f08c379a00000000000000000000000000000000000000000000000000000000081526004016119ff9061388f565b60405180910390fd5b50505050565b611a28828260405180602001604052806000815250611f39565b5050565b611a3582611d2c565b611a74576040517f08c379a0000000000000000000000000000000000000000000000000000000008152600401611a6b90613921565b60405180910390fd5b80600660008481526020019081526020016000209080519060200190611a9b929190612397565b505050565b6060611aab826112f9565b6000600660008481526020019081526020016000208054611acb90612e3b565b80601f0160208091040260200160405190810160405280929190818152602001828054611af790612e3b565b8015611b445780601f10611b1957610100808354040283529160200191611b44565b820191906000526020600020905b815481529060010190602001808311611b2757829003601f168201915b505050505090506000611b55611f94565b9050600081511415611b6b578192505050611bae565b600082511115611ba0578082604051602001611b88929190613941565b60405160208183030381529060405292505050611bae565b611ba984611fd1565b925050505b919050565b6060600082511415611bd657604051806020016040528060008152509050611d27565b6000604051806060016040528060408152602001613c0c6040913990506000600360028551611c0591906136ef565b611c0f9190613994565b6004611c1b91906139c5565b90506000602082611c2c91906136ef565b67ffffffffffffffff811115611c4557611c44612771565b5b6040519080825280601f01601f191660200182016040528015611c775781602001600182028036833780820191505090505b509050818152600183018586518101602084015b81831015611ce6576003830192508251603f8160121c168501518253600182019150603f81600c1c168501518253600182019150603f8160061c168501518253600182019150603f8116850151825360018201915050611c8b565b600389510660018114611d005760028114611d1057611d1b565b613d3d60f01b6002830352611d1b565b603d60f81b60018303525b50505050508093505050505b919050565b60008073ffffffffffffffffffffffffffffffffffffffff166002600084815260200190815260200160002060009054906101000a900473ffffffffffffffffffffffffffffffffffffffff1673ffffffffffffffffffffffffffffffffffffffff1614159050919050565b505050565b505050565b6000611dc38473ffffffffffffffffffffffffffffffffffffffff16612039565b15611f2c578373ffffffffffffffffffffffffffffffffffffffff1663150b7a02611dec611344565b8786866040518563ffffffff1660e01b8152600401611e0e9493929190613a74565b602060405180830381600087803b158015611e2857600080fd5b505af1925050508015611e5957506040513d601f19601f82011682018060405250810190611e569190613ad5565b60015b611edc573d8060008114611e89576040519150601f19603f3d011682016040523d82523d6000602084013e611e8e565b606091505b50600081511415611ed4576040517f08c379a0000000000000000000000000000000000000000000000000000000008152600401611ecb9061388f565b60405180910390fd5b805181602001fd5b63150b7a0260e01b7bffffffffffffffffffffffffffffffffffffffffffffffffffffffff1916817bffffffffffffffffffffffffffffffffffffffffffffffffffffffff191614915050611f31565b600190505b949350505050565b611f43838361205c565b611f506000848484611da2565b611f8f576040517f08c379a0000000000000000000000000000000000000000000000000000000008152600401611f869061388f565b60405180910390fd5b505050565b60606040518060400160405280601d81526020017f646174613a6170706c69636174696f6e2f6a736f6e3b6261736536342c000000815250905090565b6060611fdc826112f9565b6000611fe6611f94565b905060008151116120065760405180602001604052806000815250612031565b8061201084612236565b604051602001612021929190613941565b6040516020818303038152906040525b915050919050565b6000808273ffffffffffffffffffffffffffffffffffffffff163b119050919050565b600073ffffffffffffffffffffffffffffffffffffffff168273ffffffffffffffffffffffffffffffffffffffff1614156120cc576040517f08c379a00000000000000000000000000000000000000000000000000000000081526004016120c390613b4e565b60405180910390fd5b6120d581611d2c565b15612115576040517f08c379a000000000000000000000000000000000000000000000000000000000815260040161210c90613bba565b60405180910390fd5b61212160008383611d98565b6001600360008473ffffffffffffffffffffffffffffffffffffffff1673ffffffffffffffffffffffffffffffffffffffff168152602001908152602001600020600082825461217191906136ef565b92505081905550816002600083815260200190815260200160002060006101000a81548173ffffffffffffffffffffffffffffffffffffffff021916908373ffffffffffffffffffffffffffffffffffffffff160217905550808273ffffffffffffffffffffffffffffffffffffffff16600073ffffffffffffffffffffffffffffffffffffffff167fddf252ad1be2c89b69c2b068fc378daa952ba7f163c4a11628f55a4df523b3ef60405160405180910390a461223260008383611d9d565b5050565b6060600082141561227e576040518060400160405280600181526020017f30000000000000000000000000000000000000000000000000000000000000008152509050612392565b600082905060005b600082146122b057808061229990613081565b915050600a826122a99190613994565b9150612286565b60008167ffffffffffffffff8111156122cc576122cb612771565b5b6040519080825280601f01601f1916602001820160405280156122fe5781602001600182028036833780820191505090505b5090505b6000851461238b5760018261231791906136bb565b9150600a856123269190613bda565b603061233291906136ef565b60f81b81838151811061234857612347613023565b5b60200101907effffffffffffffffffffffffffffffffffffffffffffffffffffffffffffff1916908160001a905350600a856123849190613994565b9450612302565b8093505050505b919050565b8280546123a390612e3b565b90600052602060002090601f0160209004810192826123c5576000855561240c565b82601f106123de57805160ff191683800117855561240c565b8280016001018555821561240c579182015b8281111561240b5782518255916020019190600101906123f0565b5b509050612419919061241d565b5090565b5b8082111561243657600081600090555060010161241e565b5090565b6000604051905090565b600080fd5b600080fd5b60007fffffffff0000000000000000000000000000000000000000000000000000000082169050919050565b6124838161244e565b811461248e57600080fd5b50565b6000813590506124a08161247a565b92915050565b6000602082840312156124bc576124bb612444565b5b60006124ca84828501612491565b91505092915050565b60008115159050919050565b6124e8816124d3565b82525050565b600060208201905061250360008301846124df565b92915050565b600081519050919050565b600082825260208201905092915050565b60005b83811015612543578082015181840152602081019050612528565b83811115612552576000848401525b50505050565b6000601f19601f8301169050919050565b600061257482612509565b61257e8185612514565b935061258e818560208601612525565b61259781612558565b840191505092915050565b600060208201905081810360008301526125bc8184612569565b905092915050565b6000819050919050565b6125d7816125c4565b81146125e257600080fd5b50565b6000813590506125f4816125ce565b92915050565b6000602082840312156126105761260f612444565b5b600061261e848285016125e5565b91505092915050565b600073ffffffffffffffffffffffffffffffffffffffff82169050919050565b600061265282612627565b9050919050565b61266281612647565b82525050565b600060208201905061267d6000830184612659565b92915050565b61268c81612647565b811461269757600080fd5b50565b6000813590506126a981612683565b92915050565b600080604083850312156126c6576126c5612444565b5b60006126d48582860161269a565b92505060206126e5858286016125e5565b9150509250929050565b6126f8816125c4565b82525050565b600060208201905061271360008301846126ef565b92915050565b60008060006060848603121561273257612731612444565b5b60006127408682870161269a565b93505060206127518682870161269a565b9250506040612762868287016125e5565b9150509250925092565b600080fd5b7f4e487b7100000000000000000000000000000000000000000000000000000000600052604160045260246000fd5b6127a982612558565b810181811067ffffffffffffffff821117156127c8576127c7612771565b5b80604052505050565b60006127db61243a565b90506127e782826127a0565b919050565b600067ffffffffffffffff82111561280757612806612771565b5b602082029050602081019050919050565b600080fd5b600080fd5b600067ffffffffffffffff82111561283d5761283c612771565b5b61284682612558565b9050602081019050919050565b82818337600083830152505050565b600061287561287084612822565b6127d1565b9050828152602081018484840111156128915761289061281d565b5b61289c848285612853565b509392505050565b600082601f8301126128b9576128b861276c565b5b81356128c9848260208601612862565b91505092915050565b60006128e56128e0846127ec565b6127d1565b9050808382526020820190506020840283018581111561290857612907612818565b5b835b8181101561294f57803567ffffffffffffffff81111561292d5761292c61276c565b5b80860161293a89826128a4565b8552602085019450505060208101905061290a565b5050509392505050565b600082601f83011261296e5761296d61276c565b5b813561297e8482602086016128d2565b91505092915050565b6000806000606084860312156129a05761299f612444565b5b60006129ae8682870161269a565b935050602084013567ffffffffffffffff8111156129cf576129ce612449565b5b6129db86828701612959565b92505060406129ec868287016125e5565b9150509250925092565b600060208284031215612a0c57612a0b612444565b5b6000612a1a8482850161269a565b91505092915050565b612a2c816124d3565b8114612a3757600080fd5b50565b600081359050612a4981612a23565b92915050565b60008060408385031215612a6657612a65612444565b5b6000612a748582860161269a565b9250506020612a8585828601612a3a565b9150509250929050565b600067ffffffffffffffff821115612aaa57612aa9612771565b5b612ab382612558565b9050602081019050919050565b6000612ad3612ace84612a8f565b6127d1565b905082815260208101848484011115612aef57612aee61281d565b5b612afa848285612853565b509392505050565b600082601f830112612b1757612b1661276c565b5b8135612b27848260208601612ac0565b91505092915050565b60008060008060808587031215612b4a57612b49612444565b5b6000612b588782880161269a565b9450506020612b698782880161269a565b9350506040612b7a878288016125e5565b925050606085013567ffffffffffffffff811115612b9b57612b9a612449565b5b612ba787828801612b02565b91505092959194509250565b600080600060608486031215612bcc57612bcb612444565b5b6000612bda8682870161269a565b935050602084013567ffffffffffffffff811115612bfb57612bfa612449565b5b612c07868287016128a4565b9250506040612c18868287016125e5565b9150509250925092565b60008060408385031215612c3957612c38612444565b5b600083013567ffffffffffffffff811115612c5757612c56612449565b5b612c63858286016128a4565b9250506020612c74858286016125e5565b9150509250929050565b600067ffffffffffffffff821115612c9957612c98612771565b5b602082029050602081019050919050565b6000612cbd612cb884612c7e565b6127d1565b90508083825260208201905060208402830185811115612ce057612cdf612818565b5b835b81811015612d095780612cf5888261269a565b845260208401935050602081019050612ce2565b5050509392505050565b600082601f830112612d2857612d2761276c565b5b8135612d38848260208601612caa565b91505092915050565b600080600060608486031215612d5a57612d59612444565b5b600084013567ffffffffffffffff811115612d7857612d77612449565b5b612d8486828701612d13565b935050602084013567ffffffffffffffff811115612da557612da4612449565b5b612db186828701612959565b9250506040612dc2868287016125e5565b9150509250925092565b60008060408385031215612de357612de2612444565b5b6000612df18582860161269a565b9250506020612e028582860161269a565b9150509250929050565b7f4e487b7100000000000000000000000000000000000000000000000000000000600052602260045260246000fd5b60006002820490506001821680612e5357607f821691505b60208210811415612e6757612e66612e0c565b5b50919050565b7f4552433732313a20617070726f76616c20746f2063757272656e74206f776e6560008201527f7200000000000000000000000000000000000000000000000000000000000000602082015250565b6000612ec9602183612514565b9150612ed482612e6d565b604082019050919050565b60006020820190508181036000830152612ef881612ebc565b9050919050565b7f4552433732313a20617070726f76652063616c6c6572206973206e6f7420746f60008201527f6b656e206f776e6572206e6f7220617070726f76656420666f7220616c6c0000602082015250565b6000612f5b603e83612514565b9150612f6682612eff565b604082019050919050565b60006020820190508181036000830152612f8a81612f4e565b9050919050565b7f4552433732313a2063616c6c6572206973206e6f7420746f6b656e206f776e6560008201527f72206e6f7220617070726f766564000000000000000000000000000000000000602082015250565b6000612fed602e83612514565b9150612ff882612f91565b604082019050919050565b6000602082019050818103600083015261301c81612fe0565b9050919050565b7f4e487b7100000000000000000000000000000000000000000000000000000000600052603260045260246000fd5b7f4e487b7100000000000000000000000000000000000000000000000000000000600052601160045260246000fd5b600061308c826125c4565b91507fffffffffffffffffffffffffffffffffffffffffffffffffffffffffffffffff8214156130bf576130be613052565b5b600182019050919050565b7f456e7465726564206e756d6265722069732067726561746572207468616e207460008201527f6865204e4654204d696e74656400000000000000000000000000000000000000602082015250565b6000613126602d83612514565b9150613131826130ca565b604082019050919050565b6000602082019050818103600083015261315581613119565b9050919050565b7f4552433732313a20696e76616c696420746f6b656e2049440000000000000000600082015250565b6000613192601883612514565b915061319d8261315c565b602082019050919050565b600060208201905081810360008301526131c181613185565b9050919050565b7f4552433732313a2061646472657373207a65726f206973206e6f74206120766160008201527f6c6964206f776e65720000000000000000000000000000000000000000000000602082015250565b6000613224602983612514565b915061322f826131c8565b604082019050919050565b6000602082019050818103600083015261325381613217565b9050919050565b600081905092915050565b7f7b226e616d65223a220000000000000000000000000000000000000000000000600082015250565b600061329b60098361325a565b91506132a682613265565b600982019050919050565b60006132bc82612509565b6132c6818561325a565b93506132d6818560208601612525565b80840191505092915050565b7f222c226465736372697074696f6e223a224e465420446566696e657320796f7560008201527f7220506c756767204d656d62657273686970222c22696d616765223a22000000602082015250565b600061333e603d8361325a565b9150613349826132e2565b603d82019050919050565b7f222c202261747472696275746573223a5b7b2274726169745f74797065223a2260008201527f456d61696c222c2276616c7565223a2022000000000000000000000000000000602082015250565b60006133b060318361325a565b91506133bb82613354565b603182019050919050565b7f227d2c7b202274726169745f74797065223a22436861696e222c2276616c756560008201527f223a22506f6c79676f6e227d2c7b2274726169745f74797065223a224e46545f60208201527f50726f7669646572222c2276616c7565223a22706c7567672e6e6574776f726b60408201527f227d5d7d00000000000000000000000000000000000000000000000000000000606082015250565b600061346e60648361325a565b9150613479826133c6565b606482019050919050565b600061348f8261328e565b915061349b82876132b1565b91506134a782866132b1565b91506134b282613331565b91506134be82856132b1565b91506134c9826133a3565b91506134d582846132b1565b91506134e082613461565b915081905095945050505050565b60006134fa82846132b1565b915081905092915050565b7f4f776e61626c653a206e6577206f776e657220697320746865207a65726f206160008201527f6464726573730000000000000000000000000000000000000000000000000000602082015250565b6000613561602683612514565b915061356c82613505565b604082019050919050565b6000602082019050818103600083015261359081613554565b9050919050565b7f4552433732313a207472616e736665722066726f6d20696e636f72726563742060008201527f6f776e6572000000000000000000000000000000000000000000000000000000602082015250565b60006135f3602583612514565b91506135fe82613597565b604082019050919050565b60006020820190508181036000830152613622816135e6565b9050919050565b7f4552433732313a207472616e7366657220746f20746865207a65726f2061646460008201527f7265737300000000000000000000000000000000000000000000000000000000602082015250565b6000613685602483612514565b915061369082613629565b604082019050919050565b600060208201905081810360008301526136b481613678565b9050919050565b60006136c6826125c4565b91506136d1836125c4565b9250828210156136e4576136e3613052565b5b828203905092915050565b60006136fa826125c4565b9150613705836125c4565b9250827fffffffffffffffffffffffffffffffffffffffffffffffffffffffffffffffff0382111561373a57613739613052565b5b828201905092915050565b7f4f776e61626c653a2063616c6c6572206973206e6f7420746865206f776e6572600082015250565b600061377b602083612514565b915061378682613745565b602082019050919050565b600060208201905081810360008301526137aa8161376e565b9050919050565b7f4552433732313a20617070726f766520746f2063616c6c657200000000000000600082015250565b60006137e7601983612514565b91506137f2826137b1565b602082019050919050565b60006020820190508181036000830152613816816137da565b9050919050565b7f4552433732313a207472616e7366657220746f206e6f6e20455243373231526560008201527f63656976657220696d706c656d656e7465720000000000000000000000000000602082015250565b6000613879603283612514565b91506138848261381d565b604082019050919050565b600060208201905081810360008301526138a88161386c565b9050919050565b7f45524337323155524953746f726167653a2055524920736574206f66206e6f6e60008201527f6578697374656e7420746f6b656e000000000000000000000000000000000000602082015250565b600061390b602e83612514565b9150613916826138af565b604082019050919050565b6000602082019050818103600083015261393a816138fe565b9050919050565b600061394d82856132b1565b915061395982846132b1565b91508190509392505050565b7f4e487b7100000000000000000000000000000000000000000000000000000000600052601260045260246000fd5b600061399f826125c4565b91506139aa836125c4565b9250826139ba576139b9613965565b5b828204905092915050565b60006139d0826125c4565b91506139db836125c4565b9250817fffffffffffffffffffffffffffffffffffffffffffffffffffffffffffffffff0483118215151615613a1457613a13613052565b5b828202905092915050565b600081519050919050565b600082825260208201905092915050565b6000613a4682613a1f565b613a508185613a2a565b9350613a60818560208601612525565b613a6981612558565b840191505092915050565b6000608082019050613a896000830187612659565b613a966020830186612659565b613aa360408301856126ef565b8181036060830152613ab58184613a3b565b905095945050505050565b600081519050613acf8161247a565b92915050565b600060208284031215613aeb57613aea612444565b5b6000613af984828501613ac0565b91505092915050565b7f4552433732313a206d696e7420746f20746865207a65726f2061646472657373600082015250565b6000613b38602083612514565b9150613b4382613b02565b602082019050919050565b60006020820190508181036000830152613b6781613b2b565b9050919050565b7f4552433732313a20746f6b656e20616c7265616479206d696e74656400000000600082015250565b6000613ba4601c83612514565b9150613baf82613b6e565b602082019050919050565b60006020820190508181036000830152613bd381613b97565b9050919050565b6000613be5826125c4565b9150613bf0836125c4565b925082613c0057613bff613965565b5b82820690509291505056fe4142434445464748494a4b4c4d4e4f505152535455565758595a6162636465666768696a6b6c6d6e6f707172737475767778797a303132333435363738392b2fa2646970667358221220123ffd35707d027582a0d22712fd898fef8913412db830430f0f93f5f2ff076c64736f6c63430008080033697066733a2f2f516d63384565437a4a705576705643656565716a6945467558686a45696f6e35646d4e33515a554b6d6f75796334697066733a2f2f516d526657506d4636694e724c54756878486733707063725259313235425a6f50664674714d4d56436f52536639",
  "linkReferences": {},
  "deployedLinkReferences": {}
}