{
  "_format": "hh-sol-artifact-1",
  "contractName": "PluggNFT",
  "sourceName": "contracts/PluggNFT.sol",
  "abi": [
    {
      "inputs": [],
      "stateMutability": "nonpayable",
      "type": "constructor"
    },
    {
      "anonymous": false,
      "inputs": [
        {
          "indexed": true,
          "internalType": "address",
          "name": "owner",
          "type": "address"
        },
        {
          "indexed": true,
          "internalType": "address",
          "name": "approved",
          "type": "address"
        },
        {
          "indexed": true,
          "internalType": "uint256",
          "name": "tokenId",
          "type": "uint256"
        }
      ],
      "name": "Approval",
      "type": "event"
    },
    {
      "anonymous": false,
      "inputs": [
        {
          "indexed": true,
          "internalType": "address",
          "name": "owner",
          "type": "address"
        },
        {
          "indexed": true,
          "internalType": "address",
          "name": "operator",
          "type": "address"
        },
        {
          "indexed": false,
          "internalType": "bool",
          "name": "approved",
          "type": "bool"
        }
      ],
      "name": "ApprovalForAll",
      "type": "event"
    },
    {
      "anonymous": false,
      "inputs": [
        {
          "indexed": true,
          "internalType": "uint256",
          "name": "tokenId",
          "type": "uint256"
        },
        {
          "indexed": false,
          "internalType": "uint256",
          "name": "inputNFT_num",
          "type": "uint256"
        }
      ],
      "name": "CreatedNFT",
      "type": "event"
    },
    {
      "anonymous": false,
      "inputs": [
        {
          "indexed": true,
          "internalType": "address",
          "name": "previousOwner",
          "type": "address"
        },
        {
          "indexed": true,
          "internalType": "address",
          "name": "newOwner",
          "type": "address"
        }
      ],
      "name": "OwnershipTransferred",
      "type": "event"
    },
    {
      "anonymous": false,
      "inputs": [
        {
          "indexed": true,
          "internalType": "address",
          "name": "from",
          "type": "address"
        },
        {
          "indexed": true,
          "internalType": "address",
          "name": "to",
          "type": "address"
        },
        {
          "indexed": true,
          "internalType": "uint256",
          "name": "tokenId",
          "type": "uint256"
        }
      ],
      "name": "Transfer",
      "type": "event"
    },
    {
      "inputs": [
        {
          "internalType": "address",
          "name": "to",
          "type": "address"
        },
        {
          "internalType": "uint256",
          "name": "tokenId",
          "type": "uint256"
        }
      ],
      "name": "approve",
      "outputs": [],
      "stateMutability": "nonpayable",
      "type": "function"
    },
    {
      "inputs": [
        {
          "internalType": "address",
          "name": "owner",
          "type": "address"
        }
      ],
      "name": "balanceOf",
      "outputs": [
        {
          "internalType": "uint256",
          "name": "",
          "type": "uint256"
        }
      ],
      "stateMutability": "view",
      "type": "function"
    },
    {
      "inputs": [
        {
          "internalType": "uint256",
          "name": "inputNFT_num",
          "type": "uint256"
        },
        {
          "internalType": "uint256",
          "name": "mint_quantity",
          "type": "uint256"
        },
        {
          "internalType": "string",
          "name": "_nftEmail",
          "type": "string"
        }
      ],
      "name": "batchMint",
      "outputs": [],
      "stateMutability": "nonpayable",
      "type": "function"
    },
    {
      "inputs": [],
      "name": "contractOwner",
      "outputs": [
        {
          "internalType": "address",
          "name": "",
          "type": "address"
        }
      ],
      "stateMutability": "view",
      "type": "function"
    },
    {
      "inputs": [
        {
          "internalType": "uint256",
          "name": "tokenId",
          "type": "uint256"
        }
      ],
      "name": "getApproved",
      "outputs": [
        {
          "internalType": "address",
          "name": "",
          "type": "address"
        }
      ],
      "stateMutability": "view",
      "type": "function"
    },
    {
      "inputs": [
        {
          "internalType": "uint256",
          "name": "nftNumber",
          "type": "uint256"
        }
      ],
      "name": "getOwnerAddress",
      "outputs": [
        {
          "internalType": "address",
          "name": "",
          "type": "address"
        }
      ],
      "stateMutability": "view",
      "type": "function"
    },
    {
      "inputs": [],
      "name": "getTokenCounter",
      "outputs": [
        {
          "internalType": "uint256",
          "name": "",
          "type": "uint256"
        }
      ],
      "stateMutability": "view",
      "type": "function"
    },
    {
      "inputs": [
        {
          "internalType": "address",
          "name": "owner",
          "type": "address"
        },
        {
          "internalType": "address",
          "name": "operator",
          "type": "address"
        }
      ],
      "name": "isApprovedForAll",
      "outputs": [
        {
          "internalType": "bool",
          "name": "",
          "type": "bool"
        }
      ],
      "stateMutability": "view",
      "type": "function"
    },
    {
      "inputs": [
        {
          "internalType": "uint256",
          "name": "inputNFT_num",
          "type": "uint256"
        },
        {
          "internalType": "string",
          "name": "_nftEmail",
          "type": "string"
        }
      ],
      "name": "mintNFT",
      "outputs": [],
      "stateMutability": "nonpayable",
      "type": "function"
    },
    {
      "inputs": [],
      "name": "name",
      "outputs": [
        {
          "internalType": "string",
          "name": "",
          "type": "string"
        }
      ],
      "stateMutability": "view",
      "type": "function"
    },
    {
      "inputs": [],
      "name": "nftEmail",
      "outputs": [
        {
          "internalType": "string",
          "name": "",
          "type": "string"
        }
      ],
      "stateMutability": "view",
      "type": "function"
    },
    {
      "inputs": [
        {
          "internalType": "uint256",
          "name": "",
          "type": "uint256"
        }
      ],
      "name": "nftMinters",
      "outputs": [
        {
          "internalType": "address",
          "name": "",
          "type": "address"
        }
      ],
      "stateMutability": "view",
      "type": "function"
    },
    {
      "inputs": [],
      "name": "owner",
      "outputs": [
        {
          "internalType": "address",
          "name": "",
          "type": "address"
        }
      ],
      "stateMutability": "view",
      "type": "function"
    },
    {
      "inputs": [
        {
          "internalType": "uint256",
          "name": "tokenId",
          "type": "uint256"
        }
      ],
      "name": "ownerOf",
      "outputs": [
        {
          "internalType": "address",
          "name": "",
          "type": "address"
        }
      ],
      "stateMutability": "view",
      "type": "function"
    },
    {
      "inputs": [],
      "name": "renounceOwnership",
      "outputs": [],
      "stateMutability": "nonpayable",
      "type": "function"
    },
    {
      "inputs": [],
      "name": "s_tokenCounter",
      "outputs": [
        {
          "internalType": "uint256",
          "name": "",
          "type": "uint256"
        }
      ],
      "stateMutability": "view",
      "type": "function"
    },
    {
      "inputs": [
        {
          "internalType": "address",
          "name": "from",
          "type": "address"
        },
        {
          "internalType": "address",
          "name": "to",
          "type": "address"
        },
        {
          "internalType": "uint256",
          "name": "tokenId",
          "type": "uint256"
        }
      ],
      "name": "safeTransferFrom",
      "outputs": [],
      "stateMutability": "nonpayable",
      "type": "function"
    },
    {
      "inputs": [
        {
          "internalType": "address",
          "name": "from",
          "type": "address"
        },
        {
          "internalType": "address",
          "name": "to",
          "type": "address"
        },
        {
          "internalType": "uint256",
          "name": "tokenId",
          "type": "uint256"
        },
        {
          "internalType": "bytes",
          "name": "data",
          "type": "bytes"
        }
      ],
      "name": "safeTransferFrom",
      "outputs": [],
      "stateMutability": "nonpayable",
      "type": "function"
    },
    {
      "inputs": [
        {
          "internalType": "address",
          "name": "operator",
          "type": "address"
        },
        {
          "internalType": "bool",
          "name": "approved",
          "type": "bool"
        }
      ],
      "name": "setApprovalForAll",
      "outputs": [],
      "stateMutability": "nonpayable",
      "type": "function"
    },
    {
      "inputs": [
        {
          "internalType": "bytes4",
          "name": "interfaceId",
          "type": "bytes4"
        }
      ],
      "name": "supportsInterface",
      "outputs": [
        {
          "internalType": "bool",
          "name": "",
          "type": "bool"
        }
      ],
      "stateMutability": "view",
      "type": "function"
    },
    {
      "inputs": [
        {
          "internalType": "string",
          "name": "svg",
          "type": "string"
        }
      ],
      "name": "svgToImageURI",
      "outputs": [
        {
          "internalType": "string",
          "name": "",
          "type": "string"
        }
      ],
      "stateMutability": "pure",
      "type": "function"
    },
    {
      "inputs": [],
      "name": "symbol",
      "outputs": [
        {
          "internalType": "string",
          "name": "",
          "type": "string"
        }
      ],
      "stateMutability": "view",
      "type": "function"
    },
    {
      "inputs": [
        {
          "internalType": "uint256",
          "name": "",
          "type": "uint256"
        }
      ],
      "name": "tokenURI",
      "outputs": [
        {
          "internalType": "string",
          "name": "",
          "type": "string"
        }
      ],
      "stateMutability": "view",
      "type": "function"
    },
    {
      "inputs": [
        {
          "internalType": "address",
          "name": "from",
          "type": "address"
        },
        {
          "internalType": "address",
          "name": "to",
          "type": "address"
        },
        {
          "internalType": "uint256",
          "name": "tokenId",
          "type": "uint256"
        }
      ],
      "name": "transferFrom",
      "outputs": [],
      "stateMutability": "nonpayable",
      "type": "function"
    },
    {
      "inputs": [
        {
          "internalType": "address",
          "name": "newOwner",
          "type": "address"
        }
      ],
      "name": "transferOwnership",
      "outputs": [],
      "stateMutability": "nonpayable",
      "type": "function"
    }
  ],
  "bytecode": "0x60806040526040518060600160405280603581526020016200382260359139600b90805190602001906200003592919062000253565b506040518060600160405280603581526020016200385760359139600c90805190602001906200006792919062000253565b503480156200007557600080fd5b506040518060400160405280600d81526020017f506c7567672e4e6574776f726b000000000000000000000000000000000000008152506040518060400160405280600581526020017f504c5547470000000000000000000000000000000000000000000000000000008152508160009080519060200190620000fa92919062000253565b5080600190805190602001906200011392919062000253565b505050620001366200012a6200018560201b60201c565b6200018d60201b60201c565b33600960006101000a81548173ffffffffffffffffffffffffffffffffffffffff021916908373ffffffffffffffffffffffffffffffffffffffff160217905550600060078190555062000368565b600033905090565b6000600660009054906101000a900473ffffffffffffffffffffffffffffffffffffffff16905081600660006101000a81548173ffffffffffffffffffffffffffffffffffffffff021916908373ffffffffffffffffffffffffffffffffffffffff1602179055508173ffffffffffffffffffffffffffffffffffffffff168173ffffffffffffffffffffffffffffffffffffffff167f8be0079c531659141344cd1fd0a4f28419497f9722a3daafe3b4186f6b6457e060405160405180910390a35050565b828054620002619062000332565b90600052602060002090601f016020900481019282620002855760008555620002d1565b82601f10620002a057805160ff1916838001178555620002d1565b82800160010185558215620002d1579182015b82811115620002d0578251825591602001919060010190620002b3565b5b509050620002e09190620002e4565b5090565b5b80821115620002ff576000816000905550600101620002e5565b5090565b7f4e487b7100000000000000000000000000000000000000000000000000000000600052602260045260246000fd5b600060028204905060018216806200034b57607f821691505b6020821081141562000362576200036162000303565b5b50919050565b6134aa80620003786000396000f3fe608060405234801561001057600080fd5b50600436106101735760003560e01c8063715018a6116100de578063c87b56dd11610097578063e82435e011610071578063e82435e01461044a578063e985e9c51461047a578063f0badf26146104aa578063f2fde38b146104c857610173565b8063c87b56dd146103cc578063ce606ee0146103fc578063dd5509581461041a57610173565b8063715018a6146103325780638b515fd51461033c5780638da5cb5b1461035857806395d89b4114610376578063a22cb46514610394578063b88d4fde146103b057610173565b806323b872dd1161013057806323b872dd1461024c57806330d871c61461026857806342842e0e146102985780636352211e146102b45780636e02007d146102e457806370a082311461030257610173565b806301ffc9a71461017857806306fdde03146101a8578063081812fc146101c6578063095ea7b3146101f65780630b21a83b146102125780631a0c8fa014610230575b600080fd5b610192600480360381019061018d9190612019565b6104e4565b60405161019f9190612061565b60405180910390f35b6101b06105c6565b6040516101bd9190612115565b60405180910390f35b6101e060048036038101906101db919061216d565b610658565b6040516101ed91906121db565b60405180910390f35b610210600480360381019061020b9190612222565b61069e565b005b61021a6107b6565b6040516102279190612271565b60405180910390f35b61024a600480360381019061024591906123c1565b6107bc565b005b6102666004803603810190610261919061241d565b61088d565b005b610282600480360381019061027d9190612470565b6108ed565b60405161028f9190612115565b60405180910390f35b6102b260048036038101906102ad919061241d565b610980565b005b6102ce60048036038101906102c9919061216d565b6109a0565b6040516102db91906121db565b60405180910390f35b6102ec610a52565b6040516102f99190612271565b60405180910390f35b61031c600480360381019061031791906124b9565b610a5c565b6040516103299190612271565b60405180910390f35b61033a610b14565b005b610356600480360381019061035191906124e6565b610b28565b005b610360610bdf565b60405161036d91906121db565b60405180910390f35b61037e610c09565b60405161038b9190612115565b60405180910390f35b6103ae60048036038101906103a99190612581565b610c9b565b005b6103ca60048036038101906103c59190612662565b610cb1565b005b6103e660048036038101906103e1919061216d565b610d13565b6040516103f39190612115565b60405180910390f35b610404610f16565b60405161041191906121db565b60405180910390f35b610434600480360381019061042f919061216d565b610f3c565b60405161044191906121db565b60405180910390f35b610464600480360381019061045f919061216d565b610f79565b60405161047191906121db565b60405180910390f35b610494600480360381019061048f91906126e5565b610fac565b6040516104a19190612061565b60405180910390f35b6104b2611040565b6040516104bf9190612115565b60405180910390f35b6104e260048036038101906104dd91906124b9565b6110ce565b005b60007f80ac58cd000000000000000000000000000000000000000000000000000000007bffffffffffffffffffffffffffffffffffffffffffffffffffffffff1916827bffffffffffffffffffffffffffffffffffffffffffffffffffffffff191614806105af57507f5b5e139f000000000000000000000000000000000000000000000000000000007bffffffffffffffffffffffffffffffffffffffffffffffffffffffff1916827bffffffffffffffffffffffffffffffffffffffffffffffffffffffff1916145b806105bf57506105be82611152565b5b9050919050565b6060600080546105d590612754565b80601f016020809104026020016040519081016040528092919081815260200182805461060190612754565b801561064e5780601f106106235761010080835404028352916020019161064e565b820191906000526020600020905b81548152906001019060200180831161063157829003601f168201915b5050505050905090565b6000610663826111bc565b6004600083815260200190815260200160002060009054906101000a900473ffffffffffffffffffffffffffffffffffffffff169050919050565b60006106a9826109a0565b90508073ffffffffffffffffffffffffffffffffffffffff168373ffffffffffffffffffffffffffffffffffffffff16141561071a576040517f08c379a0000000000000000000000000000000000000000000000000000000008152600401610711906127f8565b60405180910390fd5b8073ffffffffffffffffffffffffffffffffffffffff16610739611207565b73ffffffffffffffffffffffffffffffffffffffff161480610768575061076781610762611207565b610fac565b5b6107a7576040517f08c379a000000000000000000000000000000000000000000000000000000000815260040161079e9061288a565b60405180910390fd5b6107b1838361120f565b505050565b60075481565b80600a90805190602001906107d2929190611f0a565b508160088190555060016007546107e991906128d9565b6007819055506107fb336007546112c8565b33600d6000600754815260200190815260200160002060006101000a81548173ffffffffffffffffffffffffffffffffffffffff021916908373ffffffffffffffffffffffffffffffffffffffff1602179055506007547fd329d47a9928e7ffa63146b7b8947f74c1e05145d61dc61ce96e83df1339c04b836040516108819190612271565b60405180910390a25050565b61089e610898611207565b826112e6565b6108dd576040517f08c379a00000000000000000000000000000000000000000000000000000000081526004016108d4906129a1565b60405180910390fd5b6108e883838361137b565b505050565b606060006040518060400160405280601a81526020017f646174613a696d6167652f7376672b786d6c3b6261736536342c000000000000815250905060006109538460405160200161093f91906129fd565b6040516020818303038152906040526115e2565b90508181604051602001610968929190612a14565b60405160208183030381529060405292505050919050565b61099b83838360405180602001604052806000815250610cb1565b505050565b6000806002600084815260200190815260200160002060009054906101000a900473ffffffffffffffffffffffffffffffffffffffff169050600073ffffffffffffffffffffffffffffffffffffffff168173ffffffffffffffffffffffffffffffffffffffff161415610a49576040517f08c379a0000000000000000000000000000000000000000000000000000000008152600401610a4090612a84565b60405180910390fd5b80915050919050565b6000600754905090565b60008073ffffffffffffffffffffffffffffffffffffffff168273ffffffffffffffffffffffffffffffffffffffff161415610acd576040517f08c379a0000000000000000000000000000000000000000000000000000000008152600401610ac490612b16565b60405180910390fd5b600360008373ffffffffffffffffffffffffffffffffffffffff1673ffffffffffffffffffffffffffffffffffffffff168152602001908152602001600020549050919050565b610b1c61175b565b610b2660006117d9565b565b80600a9080519060200190610b3e929190611f0a565b508260088190555060005b82811015610bd9576001600754610b6091906128d9565b600781905550610b72336007546112c8565b33600d6000600754815260200190815260200160002060006101000a81548173ffffffffffffffffffffffffffffffffffffffff021916908373ffffffffffffffffffffffffffffffffffffffff1602179055508080610bd190612b36565b915050610b49565b50505050565b6000600660009054906101000a900473ffffffffffffffffffffffffffffffffffffffff16905090565b606060018054610c1890612754565b80601f0160208091040260200160405190810160405280929190818152602001828054610c4490612754565b8015610c915780601f10610c6657610100808354040283529160200191610c91565b820191906000526020600020905b815481529060010190602001808311610c7457829003601f168201915b5050505050905090565b610cad610ca6611207565b838361189f565b5050565b610cc2610cbc611207565b836112e6565b610d01576040517f08c379a0000000000000000000000000000000000000000000000000000000008152600401610cf8906129a1565b60405180910390fd5b610d0d84848484611a0c565b50505050565b60606000600b8054610d2490612754565b80601f0160208091040260200160405190810160405280929190818152602001828054610d5090612754565b8015610d9d5780601f10610d7257610100808354040283529160200191610d9d565b820191906000526020600020905b815481529060010190602001808311610d8057829003601f168201915b5050505050905060006040518060400160405280600981526020017f20474f4c44204e46540000000000000000000000000000000000000000000000815250905060026008541415610eaf57600c8054610df690612754565b80601f0160208091040260200160405190810160405280929190818152602001828054610e2290612754565b8015610e6f5780601f10610e4457610100808354040283529160200191610e6f565b820191906000526020600020905b815481529060010190602001808311610e5257829003601f168201915b505050505091506040518060400160405280600b81526020017f2053494c564552204e465400000000000000000000000000000000000000000081525090505b610eb7611a68565b610eed610ec26105c6565b8385600a604051602001610ed99493929190612e01565b6040516020818303038152906040526115e2565b604051602001610efe929190612a14565b60405160208183030381529060405292505050919050565b600960009054906101000a900473ffffffffffffffffffffffffffffffffffffffff1681565b6000600d600083815260200190815260200160002060009054906101000a900473ffffffffffffffffffffffffffffffffffffffff169050919050565b600d6020528060005260406000206000915054906101000a900473ffffffffffffffffffffffffffffffffffffffff1681565b6000600560008473ffffffffffffffffffffffffffffffffffffffff1673ffffffffffffffffffffffffffffffffffffffff16815260200190815260200160002060008373ffffffffffffffffffffffffffffffffffffffff1673ffffffffffffffffffffffffffffffffffffffff16815260200190815260200160002060009054906101000a900460ff16905092915050565b600a805461104d90612754565b80601f016020809104026020016040519081016040528092919081815260200182805461107990612754565b80156110c65780601f1061109b576101008083540402835291602001916110c6565b820191906000526020600020905b8154815290600101906020018083116110a957829003601f168201915b505050505081565b6110d661175b565b600073ffffffffffffffffffffffffffffffffffffffff168173ffffffffffffffffffffffffffffffffffffffff161415611146576040517f08c379a000000000000000000000000000000000000000000000000000000000815260040161113d90612edd565b60405180910390fd5b61114f816117d9565b50565b60007f01ffc9a7000000000000000000000000000000000000000000000000000000007bffffffffffffffffffffffffffffffffffffffffffffffffffffffff1916827bffffffffffffffffffffffffffffffffffffffffffffffffffffffff1916149050919050565b6111c581611aa5565b611204576040517f08c379a00000000000000000000000000000000000000000000000000000000081526004016111fb90612a84565b60405180910390fd5b50565b600033905090565b816004600083815260200190815260200160002060006101000a81548173ffffffffffffffffffffffffffffffffffffffff021916908373ffffffffffffffffffffffffffffffffffffffff160217905550808273ffffffffffffffffffffffffffffffffffffffff16611282836109a0565b73ffffffffffffffffffffffffffffffffffffffff167f8c5be1e5ebec7d5bd14f71427d1e84f3dd0314c0f7b2291e5b200ac8c7c3b92560405160405180910390a45050565b6112e2828260405180602001604052806000815250611b11565b5050565b6000806112f2836109a0565b90508073ffffffffffffffffffffffffffffffffffffffff168473ffffffffffffffffffffffffffffffffffffffff16148061133457506113338185610fac565b5b8061137257508373ffffffffffffffffffffffffffffffffffffffff1661135a84610658565b73ffffffffffffffffffffffffffffffffffffffff16145b91505092915050565b8273ffffffffffffffffffffffffffffffffffffffff1661139b826109a0565b73ffffffffffffffffffffffffffffffffffffffff16146113f1576040517f08c379a00000000000000000000000000000000000000000000000000000000081526004016113e890612f6f565b60405180910390fd5b600073ffffffffffffffffffffffffffffffffffffffff168273ffffffffffffffffffffffffffffffffffffffff161415611461576040517f08c379a000000000000000000000000000000000000000000000000000000000815260040161145890613001565b60405180910390fd5b61146c838383611b6c565b61147760008261120f565b6001600360008573ffffffffffffffffffffffffffffffffffffffff1673ffffffffffffffffffffffffffffffffffffffff16815260200190815260200160002060008282546114c79190613021565b925050819055506001600360008473ffffffffffffffffffffffffffffffffffffffff1673ffffffffffffffffffffffffffffffffffffffff168152602001908152602001600020600082825461151e91906128d9565b92505081905550816002600083815260200190815260200160002060006101000a81548173ffffffffffffffffffffffffffffffffffffffff021916908373ffffffffffffffffffffffffffffffffffffffff160217905550808273ffffffffffffffffffffffffffffffffffffffff168473ffffffffffffffffffffffffffffffffffffffff167fddf252ad1be2c89b69c2b068fc378daa952ba7f163c4a11628f55a4df523b3ef60405160405180910390a46115dd838383611b71565b505050565b606060008251141561160557604051806020016040528060008152509050611756565b6000604051806060016040528060408152602001613435604091399050600060036002855161163491906128d9565b61163e9190613084565b600461164a91906130b5565b9050600060208261165b91906128d9565b67ffffffffffffffff81111561167457611673612296565b5b6040519080825280601f01601f1916602001820160405280156116a65781602001600182028036833780820191505090505b509050818152600183018586518101602084015b81831015611715576003830192508251603f8160121c168501518253600182019150603f81600c1c168501518253600182019150603f8160061c168501518253600182019150603f81168501518253600182019150506116ba565b60038951066001811461172f576002811461173f5761174a565b613d3d60f01b600283035261174a565b603d60f81b60018303525b50505050508093505050505b919050565b611763611207565b73ffffffffffffffffffffffffffffffffffffffff16611781610bdf565b73ffffffffffffffffffffffffffffffffffffffff16146117d7576040517f08c379a00000000000000000000000000000000000000000000000000000000081526004016117ce9061315b565b60405180910390fd5b565b6000600660009054906101000a900473ffffffffffffffffffffffffffffffffffffffff16905081600660006101000a81548173ffffffffffffffffffffffffffffffffffffffff021916908373ffffffffffffffffffffffffffffffffffffffff1602179055508173ffffffffffffffffffffffffffffffffffffffff168173ffffffffffffffffffffffffffffffffffffffff167f8be0079c531659141344cd1fd0a4f28419497f9722a3daafe3b4186f6b6457e060405160405180910390a35050565b8173ffffffffffffffffffffffffffffffffffffffff168373ffffffffffffffffffffffffffffffffffffffff16141561190e576040517f08c379a0000000000000000000000000000000000000000000000000000000008152600401611905906131c7565b60405180910390fd5b80600560008573ffffffffffffffffffffffffffffffffffffffff1673ffffffffffffffffffffffffffffffffffffffff16815260200190815260200160002060008473ffffffffffffffffffffffffffffffffffffffff1673ffffffffffffffffffffffffffffffffffffffff16815260200190815260200160002060006101000a81548160ff0219169083151502179055508173ffffffffffffffffffffffffffffffffffffffff168373ffffffffffffffffffffffffffffffffffffffff167f17307eab39ab6107e8899845ad3d59bd9653f200f220920489ca2b5937696c31836040516119ff9190612061565b60405180910390a3505050565b611a1784848461137b565b611a2384848484611b76565b611a62576040517f08c379a0000000000000000000000000000000000000000000000000000000008152600401611a5990613259565b60405180910390fd5b50505050565b60606040518060400160405280601d81526020017f646174613a6170706c69636174696f6e2f6a736f6e3b6261736536342c000000815250905090565b60008073ffffffffffffffffffffffffffffffffffffffff166002600084815260200190815260200160002060009054906101000a900473ffffffffffffffffffffffffffffffffffffffff1673ffffffffffffffffffffffffffffffffffffffff1614159050919050565b611b1b8383611d0d565b611b286000848484611b76565b611b67576040517f08c379a0000000000000000000000000000000000000000000000000000000008152600401611b5e90613259565b60405180910390fd5b505050565b505050565b505050565b6000611b978473ffffffffffffffffffffffffffffffffffffffff16611ee7565b15611d00578373ffffffffffffffffffffffffffffffffffffffff1663150b7a02611bc0611207565b8786866040518563ffffffff1660e01b8152600401611be294939291906132ce565b602060405180830381600087803b158015611bfc57600080fd5b505af1925050508015611c2d57506040513d601f19601f82011682018060405250810190611c2a919061332f565b60015b611cb0573d8060008114611c5d576040519150601f19603f3d011682016040523d82523d6000602084013e611c62565b606091505b50600081511415611ca8576040517f08c379a0000000000000000000000000000000000000000000000000000000008152600401611c9f90613259565b60405180910390fd5b805181602001fd5b63150b7a0260e01b7bffffffffffffffffffffffffffffffffffffffffffffffffffffffff1916817bffffffffffffffffffffffffffffffffffffffffffffffffffffffff191614915050611d05565b600190505b949350505050565b600073ffffffffffffffffffffffffffffffffffffffff168273ffffffffffffffffffffffffffffffffffffffff161415611d7d576040517f08c379a0000000000000000000000000000000000000000000000000000000008152600401611d74906133a8565b60405180910390fd5b611d8681611aa5565b15611dc6576040517f08c379a0000000000000000000000000000000000000000000000000000000008152600401611dbd90613414565b60405180910390fd5b611dd260008383611b6c565b6001600360008473ffffffffffffffffffffffffffffffffffffffff1673ffffffffffffffffffffffffffffffffffffffff1681526020019081526020016000206000828254611e2291906128d9565b92505081905550816002600083815260200190815260200160002060006101000a81548173ffffffffffffffffffffffffffffffffffffffff021916908373ffffffffffffffffffffffffffffffffffffffff160217905550808273ffffffffffffffffffffffffffffffffffffffff16600073ffffffffffffffffffffffffffffffffffffffff167fddf252ad1be2c89b69c2b068fc378daa952ba7f163c4a11628f55a4df523b3ef60405160405180910390a4611ee360008383611b71565b5050565b6000808273ffffffffffffffffffffffffffffffffffffffff163b119050919050565b828054611f1690612754565b90600052602060002090601f016020900481019282611f385760008555611f7f565b82601f10611f5157805160ff1916838001178555611f7f565b82800160010185558215611f7f579182015b82811115611f7e578251825591602001919060010190611f63565b5b509050611f8c9190611f90565b5090565b5b80821115611fa9576000816000905550600101611f91565b5090565b6000604051905090565b600080fd5b600080fd5b60007fffffffff0000000000000000000000000000000000000000000000000000000082169050919050565b611ff681611fc1565b811461200157600080fd5b50565b60008135905061201381611fed565b92915050565b60006020828403121561202f5761202e611fb7565b5b600061203d84828501612004565b91505092915050565b60008115159050919050565b61205b81612046565b82525050565b60006020820190506120766000830184612052565b92915050565b600081519050919050565b600082825260208201905092915050565b60005b838110156120b657808201518184015260208101905061209b565b838111156120c5576000848401525b50505050565b6000601f19601f8301169050919050565b60006120e78261207c565b6120f18185612087565b9350612101818560208601612098565b61210a816120cb565b840191505092915050565b6000602082019050818103600083015261212f81846120dc565b905092915050565b6000819050919050565b61214a81612137565b811461215557600080fd5b50565b60008135905061216781612141565b92915050565b60006020828403121561218357612182611fb7565b5b600061219184828501612158565b91505092915050565b600073ffffffffffffffffffffffffffffffffffffffff82169050919050565b60006121c58261219a565b9050919050565b6121d5816121ba565b82525050565b60006020820190506121f060008301846121cc565b92915050565b6121ff816121ba565b811461220a57600080fd5b50565b60008135905061221c816121f6565b92915050565b6000806040838503121561223957612238611fb7565b5b60006122478582860161220d565b925050602061225885828601612158565b9150509250929050565b61226b81612137565b82525050565b60006020820190506122866000830184612262565b92915050565b600080fd5b600080fd5b7f4e487b7100000000000000000000000000000000000000000000000000000000600052604160045260246000fd5b6122ce826120cb565b810181811067ffffffffffffffff821117156122ed576122ec612296565b5b80604052505050565b6000612300611fad565b905061230c82826122c5565b919050565b600067ffffffffffffffff82111561232c5761232b612296565b5b612335826120cb565b9050602081019050919050565b82818337600083830152505050565b600061236461235f84612311565b6122f6565b9050828152602081018484840111156123805761237f612291565b5b61238b848285612342565b509392505050565b600082601f8301126123a8576123a761228c565b5b81356123b8848260208601612351565b91505092915050565b600080604083850312156123d8576123d7611fb7565b5b60006123e685828601612158565b925050602083013567ffffffffffffffff81111561240757612406611fbc565b5b61241385828601612393565b9150509250929050565b60008060006060848603121561243657612435611fb7565b5b60006124448682870161220d565b93505060206124558682870161220d565b925050604061246686828701612158565b9150509250925092565b60006020828403121561248657612485611fb7565b5b600082013567ffffffffffffffff8111156124a4576124a3611fbc565b5b6124b084828501612393565b91505092915050565b6000602082840312156124cf576124ce611fb7565b5b60006124dd8482850161220d565b91505092915050565b6000806000606084860312156124ff576124fe611fb7565b5b600061250d86828701612158565b935050602061251e86828701612158565b925050604084013567ffffffffffffffff81111561253f5761253e611fbc565b5b61254b86828701612393565b9150509250925092565b61255e81612046565b811461256957600080fd5b50565b60008135905061257b81612555565b92915050565b6000806040838503121561259857612597611fb7565b5b60006125a68582860161220d565b92505060206125b78582860161256c565b9150509250929050565b600067ffffffffffffffff8211156125dc576125db612296565b5b6125e5826120cb565b9050602081019050919050565b6000612605612600846125c1565b6122f6565b90508281526020810184848401111561262157612620612291565b5b61262c848285612342565b509392505050565b600082601f8301126126495761264861228c565b5b81356126598482602086016125f2565b91505092915050565b6000806000806080858703121561267c5761267b611fb7565b5b600061268a8782880161220d565b945050602061269b8782880161220d565b93505060406126ac87828801612158565b925050606085013567ffffffffffffffff8111156126cd576126cc611fbc565b5b6126d987828801612634565b91505092959194509250565b600080604083850312156126fc576126fb611fb7565b5b600061270a8582860161220d565b925050602061271b8582860161220d565b9150509250929050565b7f4e487b7100000000000000000000000000000000000000000000000000000000600052602260045260246000fd5b6000600282049050600182168061276c57607f821691505b602082108114156127805761277f612725565b5b50919050565b7f4552433732313a20617070726f76616c20746f2063757272656e74206f776e6560008201527f7200000000000000000000000000000000000000000000000000000000000000602082015250565b60006127e2602183612087565b91506127ed82612786565b604082019050919050565b60006020820190508181036000830152612811816127d5565b9050919050565b7f4552433732313a20617070726f76652063616c6c6572206973206e6f7420746f60008201527f6b656e206f776e6572206e6f7220617070726f76656420666f7220616c6c0000602082015250565b6000612874603e83612087565b915061287f82612818565b604082019050919050565b600060208201905081810360008301526128a381612867565b9050919050565b7f4e487b7100000000000000000000000000000000000000000000000000000000600052601160045260246000fd5b60006128e482612137565b91506128ef83612137565b9250827fffffffffffffffffffffffffffffffffffffffffffffffffffffffffffffffff03821115612924576129236128aa565b5b828201905092915050565b7f4552433732313a2063616c6c6572206973206e6f7420746f6b656e206f776e6560008201527f72206e6f7220617070726f766564000000000000000000000000000000000000602082015250565b600061298b602e83612087565b91506129968261292f565b604082019050919050565b600060208201905081810360008301526129ba8161297e565b9050919050565b600081905092915050565b60006129d78261207c565b6129e181856129c1565b93506129f1818560208601612098565b80840191505092915050565b6000612a0982846129cc565b915081905092915050565b6000612a2082856129cc565b9150612a2c82846129cc565b91508190509392505050565b7f4552433732313a20696e76616c696420746f6b656e2049440000000000000000600082015250565b6000612a6e601883612087565b9150612a7982612a38565b602082019050919050565b60006020820190508181036000830152612a9d81612a61565b9050919050565b7f4552433732313a2061646472657373207a65726f206973206e6f74206120766160008201527f6c6964206f776e65720000000000000000000000000000000000000000000000602082015250565b6000612b00602983612087565b9150612b0b82612aa4565b604082019050919050565b60006020820190508181036000830152612b2f81612af3565b9050919050565b6000612b4182612137565b91507fffffffffffffffffffffffffffffffffffffffffffffffffffffffffffffffff821415612b7457612b736128aa565b5b600182019050919050565b7f7b226e616d65223a220000000000000000000000000000000000000000000000600082015250565b6000612bb56009836129c1565b9150612bc082612b7f565b600982019050919050565b7f222c226465736372697074696f6e223a224e465420446566696e657320796f7560008201527f7220506c756767204d656d62657273686970222c22696d616765223a22000000602082015250565b6000612c27603d836129c1565b9150612c3282612bcb565b603d82019050919050565b7f222c202261747472696275746573223a5b7b2274726169745f74797065223a2260008201527f456d61696c222c2276616c7565223a2022000000000000000000000000000000602082015250565b6000612c996031836129c1565b9150612ca482612c3d565b603182019050919050565b60008190508160005260206000209050919050565b60008154612cd181612754565b612cdb81866129c1565b94506001821660008114612cf65760018114612d0757612d3a565b60ff19831686528186019350612d3a565b612d1085612caf565b60005b83811015612d3257815481890152600182019150602081019050612d13565b838801955050505b50505092915050565b7f227d2c7b202274726169745f74797065223a22436861696e222c2276616c756560008201527f223a22506f6c79676f6e227d2c7b2274726169745f74797065223a224e46545f60208201527f50726f7669646572222c2276616c7565223a22706c7567672e6e6574776f726b60408201527f227d5d7d00000000000000000000000000000000000000000000000000000000606082015250565b6000612deb6064836129c1565b9150612df682612d43565b606482019050919050565b6000612e0c82612ba8565b9150612e1882876129cc565b9150612e2482866129cc565b9150612e2f82612c1a565b9150612e3b82856129cc565b9150612e4682612c8c565b9150612e528284612cc4565b9150612e5d82612dde565b915081905095945050505050565b7f4f776e61626c653a206e6577206f776e657220697320746865207a65726f206160008201527f6464726573730000000000000000000000000000000000000000000000000000602082015250565b6000612ec7602683612087565b9150612ed282612e6b565b604082019050919050565b60006020820190508181036000830152612ef681612eba565b9050919050565b7f4552433732313a207472616e736665722066726f6d20696e636f72726563742060008201527f6f776e6572000000000000000000000000000000000000000000000000000000602082015250565b6000612f59602583612087565b9150612f6482612efd565b604082019050919050565b60006020820190508181036000830152612f8881612f4c565b9050919050565b7f4552433732313a207472616e7366657220746f20746865207a65726f2061646460008201527f7265737300000000000000000000000000000000000000000000000000000000602082015250565b6000612feb602483612087565b9150612ff682612f8f565b604082019050919050565b6000602082019050818103600083015261301a81612fde565b9050919050565b600061302c82612137565b915061303783612137565b92508282101561304a576130496128aa565b5b828203905092915050565b7f4e487b7100000000000000000000000000000000000000000000000000000000600052601260045260246000fd5b600061308f82612137565b915061309a83612137565b9250826130aa576130a9613055565b5b828204905092915050565b60006130c082612137565b91506130cb83612137565b9250817fffffffffffffffffffffffffffffffffffffffffffffffffffffffffffffffff0483118215151615613104576131036128aa565b5b828202905092915050565b7f4f776e61626c653a2063616c6c6572206973206e6f7420746865206f776e6572600082015250565b6000613145602083612087565b91506131508261310f565b602082019050919050565b6000602082019050818103600083015261317481613138565b9050919050565b7f4552433732313a20617070726f766520746f2063616c6c657200000000000000600082015250565b60006131b1601983612087565b91506131bc8261317b565b602082019050919050565b600060208201905081810360008301526131e0816131a4565b9050919050565b7f4552433732313a207472616e7366657220746f206e6f6e20455243373231526560008201527f63656976657220696d706c656d656e7465720000000000000000000000000000602082015250565b6000613243603283612087565b915061324e826131e7565b604082019050919050565b6000602082019050818103600083015261327281613236565b9050919050565b600081519050919050565b600082825260208201905092915050565b60006132a082613279565b6132aa8185613284565b93506132ba818560208601612098565b6132c3816120cb565b840191505092915050565b60006080820190506132e360008301876121cc565b6132f060208301866121cc565b6132fd6040830185612262565b818103606083015261330f8184613295565b905095945050505050565b60008151905061332981611fed565b92915050565b60006020828403121561334557613344611fb7565b5b60006133538482850161331a565b91505092915050565b7f4552433732313a206d696e7420746f20746865207a65726f2061646472657373600082015250565b6000613392602083612087565b915061339d8261335c565b602082019050919050565b600060208201905081810360008301526133c181613385565b9050919050565b7f4552433732313a20746f6b656e20616c7265616479206d696e74656400000000600082015250565b60006133fe601c83612087565b9150613409826133c8565b602082019050919050565b6000602082019050818103600083015261342d816133f1565b905091905056fe4142434445464748494a4b4c4d4e4f505152535455565758595a6162636465666768696a6b6c6d6e6f707172737475767778797a303132333435363738392b2fa26469706673582212206662d852fc82768b5756dbdf3e8ada7ee18cc1ecbd45a9caf37172e5e1dfeb8364736f6c63430008080033697066733a2f2f516d63384565437a4a705576705643656565716a6945467558686a45696f6e35646d4e33515a554b6d6f75796334697066733a2f2f516d526657506d4636694e724c54756878486733707063725259313235425a6f50664674714d4d56436f52536639",
  "linkReferences": {},
  "deployedLinkReferences": {}
}